{
  "_format": "hh-sol-artifact-1",
  "contractName": "Guild",
  "sourceName": "contracts/Guild.sol",
  "abi": [
    {
      "inputs": [
        {
          "internalType": "address",
          "name": "_oracleClient",
          "type": "address"
        },
        {
          "internalType": "address",
          "name": "_shopFactory",
          "type": "address"
        }
      ],
      "stateMutability": "nonpayable",
      "type": "constructor"
    },
    {
      "anonymous": false,
      "inputs": [
        {
          "indexed": true,
          "internalType": "uint256",
          "name": "shopId",
          "type": "uint256"
        },
        {
          "indexed": false,
          "internalType": "uint256",
          "name": "productId",
          "type": "uint256"
        }
      ],
      "name": "ProductCreated",
      "type": "event"
    },
    {
      "anonymous": false,
      "inputs": [
        {
          "indexed": true,
          "internalType": "uint256",
          "name": "shopId",
          "type": "uint256"
        },
        {
          "indexed": true,
          "internalType": "address",
          "name": "buyer",
          "type": "address"
        },
        {
          "indexed": true,
          "internalType": "uint256",
          "name": "productId",
          "type": "uint256"
        },
        {
          "indexed": false,
          "internalType": "uint8",
          "name": "contentVersion",
          "type": "uint8"
        },
        {
          "indexed": false,
          "internalType": "uint256",
          "name": "saleId",
          "type": "uint256"
        }
      ],
      "name": "RequestedSale",
      "type": "event"
    },
    {
      "anonymous": false,
      "inputs": [
        {
          "indexed": false,
          "internalType": "uint256",
          "name": "shopId",
          "type": "uint256"
        },
        {
          "indexed": true,
          "internalType": "address",
          "name": "owner",
          "type": "address"
        }
      ],
      "name": "ShopCreated",
      "type": "event"
    },
    {
      "inputs": [
        {
          "internalType": "uint256",
          "name": "_shopId",
          "type": "uint256"
        },
        {
          "internalType": "string[]",
          "name": "_contentCID",
          "type": "string[]"
        },
        {
          "internalType": "string",
          "name": "_lockedLicense",
          "type": "string"
        },
        {
          "internalType": "string",
          "name": "_sellerLicense",
          "type": "string"
        },
        {
          "internalType": "uint256",
          "name": "_price",
          "type": "uint256"
        },
        {
          "internalType": "uint256",
          "name": "_stock",
          "type": "uint256"
        }
      ],
      "name": "addProduct",
      "outputs": [],
      "stateMutability": "nonpayable",
      "type": "function"
    },
    {
      "inputs": [
        {
          "internalType": "uint256",
          "name": "_shopId",
          "type": "uint256"
        },
        {
          "internalType": "uint256",
          "name": "_saleId",
          "type": "uint256"
        },
        {
          "internalType": "enum IShop.RatingOptions",
          "name": "_rating",
          "type": "uint8"
        }
      ],
      "name": "addRating",
      "outputs": [],
      "stateMutability": "nonpayable",
      "type": "function"
    },
    {
      "inputs": [
        {
          "internalType": "address",
          "name": "",
          "type": "address"
        }
      ],
      "name": "buyerCredits",
      "outputs": [
        {
          "internalType": "uint256",
          "name": "",
          "type": "uint256"
        }
      ],
      "stateMutability": "view",
      "type": "function"
    },
    {
      "inputs": [
        {
          "internalType": "address",
          "name": "_oracle",
          "type": "address"
        }
      ],
      "name": "changeOracle",
      "outputs": [],
      "stateMutability": "nonpayable",
      "type": "function"
    },
    {
      "inputs": [
        {
          "components": [
            {
              "internalType": "uint256",
              "name": "shopId",
              "type": "uint256"
            },
            {
              "internalType": "uint256",
              "name": "productId",
              "type": "uint256"
            },
            {
              "internalType": "uint256",
              "name": "amount",
              "type": "uint256"
            }
          ],
          "internalType": "struct Guild.CartItem[]",
          "name": "_cartItems",
          "type": "tuple[]"
        },
        {
          "internalType": "string",
          "name": "_publicKey",
          "type": "string"
        },
        {
          "internalType": "uint256",
          "name": "_redeemCredits",
          "type": "uint256"
        }
      ],
      "name": "checkoutCart",
      "outputs": [],
      "stateMutability": "payable",
      "type": "function"
    },
    {
      "inputs": [
        {
          "internalType": "uint256",
          "name": "_requestId",
          "type": "uint256"
        },
        {
          "internalType": "string",
          "name": "_unlockedLicense",
          "type": "string"
        }
      ],
      "name": "completeUnlock",
      "outputs": [],
      "stateMutability": "nonpayable",
      "type": "function"
    },
    {
      "inputs": [
        {
          "internalType": "string",
          "name": "_shopName",
          "type": "string"
        },
        {
          "internalType": "string",
          "name": "_detailsCId",
          "type": "string"
        },
        {
          "components": [
            {
              "internalType": "address",
              "name": "addr",
              "type": "address"
            },
            {
              "internalType": "uint8",
              "name": "share",
              "type": "uint8"
            }
          ],
          "internalType": "struct IShop.Beneficiary[]",
          "name": "_beneficiaries",
          "type": "tuple[]"
        },
        {
          "internalType": "string",
          "name": "_ownerPublicKey",
          "type": "string"
        }
      ],
      "name": "createShop",
      "outputs": [],
      "stateMutability": "nonpayable",
      "type": "function"
    },
    {
      "inputs": [],
      "name": "getApiPublicKey",
      "outputs": [
        {
          "internalType": "string",
          "name": "",
          "type": "string"
        }
      ],
      "stateMutability": "view",
      "type": "function"
    },
    {
      "inputs": [],
      "name": "getGuildInfo",
      "outputs": [
        {
          "internalType": "address",
          "name": "",
          "type": "address"
        },
        {
          "internalType": "address",
          "name": "",
          "type": "address"
        },
        {
          "internalType": "address",
          "name": "",
          "type": "address"
        },
        {
          "internalType": "uint256",
          "name": "",
          "type": "uint256"
        },
        {
          "internalType": "uint256",
          "name": "",
          "type": "uint256"
        }
      ],
      "stateMutability": "view",
      "type": "function"
    },
    {
      "inputs": [
        {
          "internalType": "uint256",
          "name": "_shopId",
          "type": "uint256"
        }
      ],
      "name": "getOpenSaleIds",
      "outputs": [
        {
          "internalType": "uint256[]",
          "name": "",
          "type": "uint256[]"
        }
      ],
      "stateMutability": "view",
      "type": "function"
    },
    {
      "inputs": [
        {
          "internalType": "uint256",
          "name": "_shopId",
          "type": "uint256"
        },
        {
          "internalType": "uint256",
          "name": "_productId",
          "type": "uint256"
        }
      ],
      "name": "getProductInfo",
      "outputs": [
        {
          "components": [
            {
              "internalType": "string[]",
              "name": "contentCID",
              "type": "string[]"
            },
            {
              "internalType": "string",
              "name": "lockedLicense",
              "type": "string"
            },
            {
              "internalType": "uint256",
              "name": "price",
              "type": "uint256"
            },
            {
              "internalType": "uint256",
              "name": "stock",
              "type": "uint256"
            },
            {
              "internalType": "uint256",
              "name": "salesCount",
              "type": "uint256"
            },
            {
              "internalType": "uint256",
              "name": "revenue",
              "type": "uint256"
            },
            {
              "internalType": "uint256",
              "name": "creationTime",
              "type": "uint256"
            },
            {
              "components": [
                {
                  "internalType": "uint32[4]",
                  "name": "ratingsCount",
                  "type": "uint32[4]"
                }
              ],
              "internalType": "struct IShop.Ratings",
              "name": "ratings",
              "type": "tuple"
            },
            {
              "internalType": "bool",
              "name": "isAvailable",
              "type": "bool"
            },
            {
              "internalType": "string",
              "name": "sellerLicense",
              "type": "string"
            }
          ],
          "internalType": "struct IShop.Product",
          "name": "",
          "type": "tuple"
        }
      ],
      "stateMutability": "view",
      "type": "function"
    },
    {
      "inputs": [
        {
          "internalType": "uint256",
          "name": "_shopId",
          "type": "uint256"
        }
      ],
      "name": "getProducts",
      "outputs": [
        {
          "components": [
            {
              "internalType": "string[]",
              "name": "contentCID",
              "type": "string[]"
            },
            {
              "internalType": "string",
              "name": "lockedLicense",
              "type": "string"
            },
            {
              "internalType": "uint256",
              "name": "price",
              "type": "uint256"
            },
            {
              "internalType": "uint256",
              "name": "stock",
              "type": "uint256"
            },
            {
              "internalType": "uint256",
              "name": "salesCount",
              "type": "uint256"
            },
            {
              "internalType": "uint256",
              "name": "revenue",
              "type": "uint256"
            },
            {
              "internalType": "uint256",
              "name": "creationTime",
              "type": "uint256"
            },
            {
              "components": [
                {
                  "internalType": "uint32[4]",
                  "name": "ratingsCount",
                  "type": "uint32[4]"
                }
              ],
              "internalType": "struct IShop.Ratings",
              "name": "ratings",
              "type": "tuple"
            },
            {
              "internalType": "bool",
              "name": "isAvailable",
              "type": "bool"
            },
            {
              "internalType": "string",
              "name": "sellerLicense",
              "type": "string"
            }
          ],
          "internalType": "struct IShop.Product[]",
          "name": "",
          "type": "tuple[]"
        }
      ],
      "stateMutability": "view",
      "type": "function"
    },
    {
      "inputs": [
        {
          "internalType": "uint256",
          "name": "_shopId",
          "type": "uint256"
        }
      ],
      "name": "getProductsCount",
      "outputs": [
        {
          "internalType": "uint256",
          "name": "",
          "type": "uint256"
        }
      ],
      "stateMutability": "view",
      "type": "function"
    },
    {
      "inputs": [
        {
          "internalType": "uint256",
          "name": "_shopId",
          "type": "uint256"
        },
        {
          "internalType": "uint256",
          "name": "_saleId",
          "type": "uint256"
        }
      ],
      "name": "getRefund",
      "outputs": [],
      "stateMutability": "payable",
      "type": "function"
    },
    {
      "inputs": [
        {
          "internalType": "uint256",
          "name": "_shopId",
          "type": "uint256"
        },
        {
          "internalType": "uint256",
          "name": "_saleId",
          "type": "uint256"
        }
      ],
      "name": "getSaleInfo",
      "outputs": [
        {
          "components": [
            {
              "internalType": "address",
              "name": "buyer",
              "type": "address"
            },
            {
              "internalType": "string",
              "name": "publicKey",
              "type": "string"
            },
            {
              "internalType": "uint256",
              "name": "productId",
              "type": "uint256"
            },
            {
              "internalType": "uint256",
              "name": "amount",
              "type": "uint256"
            },
            {
              "internalType": "uint256",
              "name": "saleDeadline",
              "type": "uint256"
            },
            {
              "internalType": "string",
              "name": "unlockedLicense",
              "type": "string"
            },
            {
              "internalType": "enum IShop.RatingOptions",
              "name": "rating",
              "type": "uint8"
            },
            {
              "internalType": "enum IShop.SaleStatus",
              "name": "status",
              "type": "uint8"
            }
          ],
          "internalType": "struct IShop.Sale",
          "name": "",
          "type": "tuple"
        }
      ],
      "stateMutability": "view",
      "type": "function"
    },
    {
      "inputs": [],
      "name": "getShopCount",
      "outputs": [
        {
          "internalType": "uint256",
          "name": "",
          "type": "uint256"
        }
      ],
      "stateMutability": "view",
      "type": "function"
    },
    {
      "inputs": [
        {
          "internalType": "string",
          "name": "_shopName",
          "type": "string"
        }
      ],
      "name": "getShopIdFromHandle",
      "outputs": [
        {
          "internalType": "uint256",
          "name": "",
          "type": "uint256"
        }
      ],
      "stateMutability": "view",
      "type": "function"
    },
    {
      "inputs": [
        {
          "internalType": "uint256",
          "name": "_shopId",
          "type": "uint256"
        }
      ],
      "name": "getShopInfo",
      "outputs": [
        {
          "components": [
            {
              "internalType": "address",
              "name": "guild",
              "type": "address"
            },
            {
              "internalType": "address",
              "name": "owner",
              "type": "address"
            },
            {
              "internalType": "string",
              "name": "detailsCId",
              "type": "string"
            },
            {
              "internalType": "string",
              "name": "shopName",
              "type": "string"
            },
            {
              "internalType": "uint256",
              "name": "productsCount",
              "type": "uint256"
            },
            {
              "internalType": "uint256",
              "name": "salesCount",
              "type": "uint256"
            }
          ],
          "internalType": "struct IShop.ShopInfo",
          "name": "",
          "type": "tuple"
        },
        {
          "components": [
            {
              "internalType": "address",
              "name": "addr",
              "type": "address"
            },
            {
              "internalType": "uint8",
              "name": "share",
              "type": "uint8"
            }
          ],
          "internalType": "struct IShop.Beneficiary[]",
          "name": "",
          "type": "tuple[]"
        }
      ],
      "stateMutability": "view",
      "type": "function"
    },
    {
      "inputs": [
        {
          "internalType": "string",
          "name": "",
          "type": "string"
        }
      ],
      "name": "isShopNameTaken",
      "outputs": [
        {
          "internalType": "bool",
          "name": "",
          "type": "bool"
        }
      ],
      "stateMutability": "view",
      "type": "function"
    },
    {
      "inputs": [
        {
          "internalType": "address",
          "name": "",
          "type": "address"
        }
      ],
      "name": "publicKeys",
      "outputs": [
        {
          "internalType": "string",
          "name": "",
          "type": "string"
        }
      ],
      "stateMutability": "view",
      "type": "function"
    },
    {
      "inputs": [
        {
          "internalType": "uint256",
          "name": "",
          "type": "uint256"
        }
      ],
      "name": "requestIdToRequestIndex",
      "outputs": [
        {
          "internalType": "uint256",
          "name": "",
          "type": "uint256"
        }
      ],
      "stateMutability": "view",
      "type": "function"
    },
    {
      "inputs": [
        {
          "internalType": "uint256",
          "name": "_newRatingReward",
          "type": "uint256"
        }
      ],
      "name": "setRatingReward",
      "outputs": [],
      "stateMutability": "nonpayable",
      "type": "function"
    },
    {
      "inputs": [
        {
          "internalType": "uint256",
          "name": "_newServiceTax",
          "type": "uint256"
        }
      ],
      "name": "setServiceTax",
      "outputs": [],
      "stateMutability": "nonpayable",
      "type": "function"
    },
    {
      "inputs": [],
      "name": "shopFactory",
      "outputs": [
        {
          "internalType": "address",
          "name": "",
          "type": "address"
        }
      ],
      "stateMutability": "view",
      "type": "function"
    },
    {
      "inputs": [
        {
          "internalType": "string",
          "name": "",
          "type": "string"
        }
      ],
      "name": "shopNameToShopId",
      "outputs": [
        {
          "internalType": "uint256",
          "name": "",
          "type": "uint256"
        }
      ],
      "stateMutability": "view",
      "type": "function"
    },
    {
      "inputs": [
        {
          "internalType": "uint256",
          "name": "",
          "type": "uint256"
        }
      ],
      "name": "shops",
      "outputs": [
        {
          "internalType": "address",
          "name": "",
          "type": "address"
        }
      ],
      "stateMutability": "view",
      "type": "function"
    },
    {
      "inputs": [
        {
          "internalType": "uint256",
          "name": "_shopId",
          "type": "uint256"
        },
        {
          "internalType": "uint256",
          "name": "_productId",
          "type": "uint256"
        },
        {
          "internalType": "string",
          "name": "_contentCID",
          "type": "string"
        },
        {
          "internalType": "uint256",
          "name": "_price",
          "type": "uint256"
        },
        {
          "internalType": "uint256",
          "name": "_stock",
          "type": "uint256"
        },
        {
          "internalType": "bool",
          "name": "_isAvailable",
          "type": "bool"
        }
      ],
      "name": "updateProduct",
      "outputs": [],
      "stateMutability": "nonpayable",
      "type": "function"
    },
    {
      "inputs": [
        {
          "internalType": "uint256",
          "name": "_shopId",
          "type": "uint256"
        },
        {
          "internalType": "string",
          "name": "_detailsCId",
          "type": "string"
        }
      ],
      "name": "updateShopDetails",
      "outputs": [],
      "stateMutability": "nonpayable",
      "type": "function"
    }
  ],
  "bytecode": "0x6080604052600060045560006005553480156200001b57600080fd5b50604051620058bf380380620058bf833981810160405281019062000041919062000185565b336000806101000a81548173ffffffffffffffffffffffffffffffffffffffff021916908373ffffffffffffffffffffffffffffffffffffffff16021790555081600160006101000a81548173ffffffffffffffffffffffffffffffffffffffff021916908373ffffffffffffffffffffffffffffffffffffffff16021790555080600260006101000a81548173ffffffffffffffffffffffffffffffffffffffff021916908373ffffffffffffffffffffffffffffffffffffffff160217905550600260009054906101000a900473ffffffffffffffffffffffffffffffffffffffff16600760006101000a81548173ffffffffffffffffffffffffffffffffffffffff021916908373ffffffffffffffffffffffffffffffffffffffff16021790555050506200021f565b6000815190506200017f8162000205565b92915050565b600080604083850312156200019f576200019e62000200565b5b6000620001af858286016200016e565b9250506020620001c2858286016200016e565b9150509250929050565b6000620001d982620001e0565b9050919050565b600073ffffffffffffffffffffffffffffffffffffffff82169050919050565b600080fd5b6200021081620001cc565b81146200021c57600080fd5b50565b615690806200022f6000396000f3fe6080604052600436106101b75760003560e01c806385fa74bc116100ec578063ba48cefc1161008a578063debad27f11610064578063debad27f14610673578063e51e83c1146106b0578063ef7de621146106db578063ff87d94f14610704576101b7565b8063ba48cefc146105f1578063d2c351b41461061a578063db66fa7914610657576101b7565b8063a0e81118116100c6578063a0e81118146104fc578063a1132be214610539578063a3d6f9a914610576578063b9d3c0dd146105b3576101b7565b806385fa74bc14610466578063892c45f914610482578063a056631b146104bf576101b7565b8063492e8a681161015957806366d9e1a81161013357806366d9e1a8146103a8578063713aca74146103d157806371f2f8371461040e57806380e541b21461043d576101b7565b8063492e8a68146103195780635bc358f4146103425780635c40d2fe1461036b576101b7565b806330f9caa21161019557806330f9caa21461024b5780634037b7bd1461028857806347c421b5146102b357806347fcdbd6146102dc576101b7565b80630328945b146101bc57806310d480ba146101e5578063188a7cf11461020e575b600080fd5b3480156101c857600080fd5b506101e360048036038101906101de9190613f8d565b61072f565b005b3480156101f157600080fd5b5061020c60048036038101906102079190613d63565b610913565b005b34801561021a57600080fd5b5061023560048036038101906102309190613af0565b6109ab565b6040516102429190614ca1565b60405180910390f35b34801561025757600080fd5b50610272600480360381019061026d9190613af0565b610a3e565b60405161027f9190614ca1565b60405180910390f35b34801561029457600080fd5b5061029d610a6c565b6040516102aa9190614acd565b60405180910390f35b3480156102bf57600080fd5b506102da60048036038101906102d59190613979565b610b18565b005b3480156102e857600080fd5b5061030360048036038101906102fe9190613d63565b610bea565b6040516103109190614a90565b60405180910390f35b34801561032557600080fd5b50610340600480360381019061033b9190613b82565b610cb4565b005b34801561034e57600080fd5b5061036960048036038101906103649190613d63565b610fe6565b005b34801561037757600080fd5b50610392600480360381019061038d9190613efa565b61107e565b60405161039f9190614c48565b60405180910390f35b3480156103b457600080fd5b506103cf60048036038101906103ca9190613e9e565b61115a565b005b3480156103dd57600080fd5b506103f860048036038101906103f39190613d63565b6113f1565b6040516104059190614900565b60405180910390f35b34801561041a57600080fd5b50610423611430565b60405161043495949392919061491b565b60405180910390f35b34801561044957600080fd5b50610464600480360381019061045f9190613f3a565b6114b7565b005b610480600480360381019061047b9190613efa565b611706565b005b34801561048e57600080fd5b506104a960048036038101906104a49190613d63565b611952565b6040516104b69190614ca1565b60405180910390f35b3480156104cb57600080fd5b506104e660048036038101906104e19190613979565b611a17565b6040516104f39190614ca1565b60405180910390f35b34801561050857600080fd5b50610523600480360381019061051e9190613d63565b611a2f565b6040516105309190614ca1565b60405180910390f35b34801561054557600080fd5b50610560600480360381019061055b9190613af0565b611a47565b60405161056d9190614ab2565b60405180910390f35b34801561058257600080fd5b5061059d60048036038101906105989190613979565b611a7d565b6040516105aa9190614acd565b60405180910390f35b3480156105bf57600080fd5b506105da60048036038101906105d59190613d63565b611b1d565b6040516105e8929190614c6a565b60405180910390f35b3480156105fd57600080fd5b5061061860048036038101906106139190613e9e565b611bf1565b005b34801561062657600080fd5b50610641600480360381019061063c9190613efa565b611dc9565b60405161064e9190614c26565b60405180910390f35b610671600480360381019061066c91906139d3565b611ea5565b005b34801561067f57600080fd5b5061069a60048036038101906106959190613d63565b6120fd565b6040516106a79190614a6e565b60405180910390f35b3480156106bc57600080fd5b506106c56121c7565b6040516106d29190614ca1565b60405180910390f35b3480156106e757600080fd5b5061070260048036038101906106fd9190613dbd565b6121d4565b005b34801561071057600080fd5b506107196124b7565b6040516107269190614900565b60405180910390f35b85600381815481106107445761074361532d565b5b9060005260206000200160009054906101000a900473ffffffffffffffffffffffffffffffffffffffff1673ffffffffffffffffffffffffffffffffffffffff1663893d20e86040518163ffffffff1660e01b815260040160206040518083038186803b1580156107b457600080fd5b505afa1580156107c8573d6000803e3d6000fd5b505050506040513d601f19601f820116820180604052508101906107ec91906139a6565b73ffffffffffffffffffffffffffffffffffffffff163373ffffffffffffffffffffffffffffffffffffffff1614610859576040517f08c379a000000000000000000000000000000000000000000000000000000000815260040161085090614bc6565b60405180910390fd5b6003878154811061086d5761086c61532d565b5b9060005260206000200160009054906101000a900473ffffffffffffffffffffffffffffffffffffffff1673ffffffffffffffffffffffffffffffffffffffff16631d9990ed87878787876040518663ffffffff1660e01b81526004016108d8959493929190614d15565b600060405180830381600087803b1580156108f257600080fd5b505af1158015610906573d6000803e3d6000fd5b5050505050505050505050565b60008054906101000a900473ffffffffffffffffffffffffffffffffffffffff1673ffffffffffffffffffffffffffffffffffffffff163373ffffffffffffffffffffffffffffffffffffffff16146109a1576040517f08c379a000000000000000000000000000000000000000000000000000000000815260040161099890614be6565b60405180910390fd5b8060058190555050565b6000600b826040516109bd91906148e9565b908152602001604051809103902060009054906101000a900460ff16610a18576040517f08c379a0000000000000000000000000000000000000000000000000000000008152600401610a0f90614b86565b60405180910390fd5b600a82604051610a2891906148e9565b9081526020016040518091039020549050919050565b600a818051602081018201805184825260208301602085012081835280955050505050506000915090505481565b6060600160009054906101000a900473ffffffffffffffffffffffffffffffffffffffff1673ffffffffffffffffffffffffffffffffffffffff16634037b7bd6040518163ffffffff1660e01b815260040160006040518083038186803b158015610ad657600080fd5b505afa158015610aea573d6000803e3d6000fd5b505050506040513d6000823e3d601f19601f82011682018060405250810190610b139190613b39565b905090565b60008054906101000a900473ffffffffffffffffffffffffffffffffffffffff1673ffffffffffffffffffffffffffffffffffffffff163373ffffffffffffffffffffffffffffffffffffffff1614610ba6576040517f08c379a0000000000000000000000000000000000000000000000000000000008152600401610b9d90614be6565b60405180910390fd5b80600160006101000a81548173ffffffffffffffffffffffffffffffffffffffff021916908373ffffffffffffffffffffffffffffffffffffffff16021790555050565b606060038281548110610c0057610bff61532d565b5b9060005260206000200160009054906101000a900473ffffffffffffffffffffffffffffffffffffffff1673ffffffffffffffffffffffffffffffffffffffff1663992f2bad6040518163ffffffff1660e01b815260040160006040518083038186803b158015610c7057600080fd5b505afa158015610c84573d6000803e3d6000fd5b505050506040513d6000823e3d601f19601f82011682018060405250810190610cad9190613aa7565b9050919050565b600b84604051610cc491906148e9565b908152602001604051809103902060009054906101000a900460ff1615610d20576040517f08c379a0000000000000000000000000000000000000000000000000000000008152600401610d1790614b26565b60405180910390fd5b80600d60003373ffffffffffffffffffffffffffffffffffffffff1673ffffffffffffffffffffffffffffffffffffffff1681526020019081526020016000209080519060200190610d73929190612be1565b50600760009054906101000a900473ffffffffffffffffffffffffffffffffffffffff1673ffffffffffffffffffffffffffffffffffffffff16639472760d338686866040518563ffffffff1660e01b8152600401610dd5949392919061496e565b600060405180830381600087803b158015610def57600080fd5b505af1158015610e03573d6000803e3d6000fd5b505050506003600760009054906101000a900473ffffffffffffffffffffffffffffffffffffffff1673ffffffffffffffffffffffffffffffffffffffff16633f7b27d56040518163ffffffff1660e01b815260040160206040518083038186803b158015610e7157600080fd5b505afa158015610e85573d6000803e3d6000fd5b505050506040513d601f19601f82011682018060405250810190610ea991906139a6565b9080600181540180825580915050600190039060005260206000200160009091909190916101000a81548173ffffffffffffffffffffffffffffffffffffffff021916908373ffffffffffffffffffffffffffffffffffffffff1602179055506001600380549050610f1b91906150a0565b600a85604051610f2b91906148e9565b9081526020016040518091039020819055506001600b85604051610f4f91906148e9565b908152602001604051809103902060006101000a81548160ff0219169083151502179055503373ffffffffffffffffffffffffffffffffffffffff167f9f72cef855334558e5b6a87934fe666cced3893f8f256a17a302209299490951600a86604051610fbc91906148e9565b908152602001604051809103902054604051610fd89190614ca1565b60405180910390a250505050565b60008054906101000a900473ffffffffffffffffffffffffffffffffffffffff1673ffffffffffffffffffffffffffffffffffffffff163373ffffffffffffffffffffffffffffffffffffffff1614611074576040517f08c379a000000000000000000000000000000000000000000000000000000000815260040161106b90614be6565b60405180910390fd5b8060048190555050565b611086612c67565b6003838154811061109a5761109961532d565b5b9060005260206000200160009054906101000a900473ffffffffffffffffffffffffffffffffffffffff1673ffffffffffffffffffffffffffffffffffffffff1663d8f6d596836040518263ffffffff1660e01b81526004016110fd9190614ca1565b60006040518083038186803b15801561111557600080fd5b505afa158015611129573d6000803e3d6000fd5b505050506040513d6000823e3d601f19601f820116820180604052508101906111529190613ca2565b905092915050565b600160009054906101000a900473ffffffffffffffffffffffffffffffffffffffff1673ffffffffffffffffffffffffffffffffffffffff163373ffffffffffffffffffffffffffffffffffffffff16146111ea576040517f08c379a00000000000000000000000000000000000000000000000000000000081526004016111e190614ba6565b60405180910390fd5b60036008600084815260200190815260200160002060010154815481106112145761121361532d565b5b9060005260206000200160009054906101000a900473ffffffffffffffffffffffffffffffffffffffff1673ffffffffffffffffffffffffffffffffffffffff1663272e21d56008600085815260200190815260200160002060020154836040518363ffffffff1660e01b815260040161128f929190614ce5565b600060405180830381600087803b1580156112a957600080fd5b505af11580156112bd573d6000803e3d6000fd5b50505050600660016006805490506112d591906150a0565b815481106112e6576112e561532d565b5b906000526020600020015460066009600085815260200190815260200160002054815481106113185761131761532d565b5b90600052602060002001819055506009600083815260200190815260200160002054600960006006600160068054905061135291906150a0565b815481106113635761136261532d565b5b90600052602060002001548152602001908152602001600020819055506006805480611392576113916152fe565b5b600190038181906000526020600020016000905590556009600083815260200190815260200160002060009055600860008381526020019081526020016000206000808201600090556001820160009055600282016000905550505050565b6003818154811061140157600080fd5b906000526020600020016000915054906101000a900473ffffffffffffffffffffffffffffffffffffffff1681565b60008060008060008060009054906101000a900473ffffffffffffffffffffffffffffffffffffffff16600160009054906101000a900473ffffffffffffffffffffffffffffffffffffffff16600260009054906101000a900473ffffffffffffffffffffffffffffffffffffffff16600454600554945094509450945094509091929394565b82826000600383815481106114cf576114ce61532d565b5b9060005260206000200160009054906101000a900473ffffffffffffffffffffffffffffffffffffffff1673ffffffffffffffffffffffffffffffffffffffff1663d8f6d596836040518263ffffffff1660e01b81526004016115329190614ca1565b60006040518083038186803b15801561154a57600080fd5b505afa15801561155e573d6000803e3d6000fd5b505050506040513d6000823e3d601f19601f820116820180604052508101906115879190613ca2565b9050806000015173ffffffffffffffffffffffffffffffffffffffff163373ffffffffffffffffffffffffffffffffffffffff16146115fb576040517f08c379a00000000000000000000000000000000000000000000000000000000081526004016115f290614c06565b60405180910390fd5b6003868154811061160f5761160e61532d565b5b9060005260206000200160009054906101000a900473ffffffffffffffffffffffffffffffffffffffff1673ffffffffffffffffffffffffffffffffffffffff1663cf270c8986866040518363ffffffff1660e01b8152600401611674929190614cbc565b600060405180830381600087803b15801561168e57600080fd5b505af11580156116a2573d6000803e3d6000fd5b50505050600454600c60003373ffffffffffffffffffffffffffffffffffffffff1673ffffffffffffffffffffffffffffffffffffffff16815260200190815260200160002060008282546116f7919061504a565b92505081905550505050505050565b818160006003838154811061171e5761171d61532d565b5b9060005260206000200160009054906101000a900473ffffffffffffffffffffffffffffffffffffffff1673ffffffffffffffffffffffffffffffffffffffff1663d8f6d596836040518263ffffffff1660e01b81526004016117819190614ca1565b60006040518083038186803b15801561179957600080fd5b505afa1580156117ad573d6000803e3d6000fd5b505050506040513d6000823e3d601f19601f820116820180604052508101906117d69190613ca2565b9050806000015173ffffffffffffffffffffffffffffffffffffffff163373ffffffffffffffffffffffffffffffffffffffff161461184a576040517f08c379a000000000000000000000000000000000000000000000000000000000815260040161184190614c06565b60405180910390fd5b600454600c60003373ffffffffffffffffffffffffffffffffffffffff1673ffffffffffffffffffffffffffffffffffffffff168152602001908152602001600020600082825461189b919061504a565b92505081905550600385815481106118b6576118b561532d565b5b9060005260206000200160009054906101000a900473ffffffffffffffffffffffffffffffffffffffff1673ffffffffffffffffffffffffffffffffffffffff1663d2f0be99856040518263ffffffff1660e01b81526004016119199190614ca1565b600060405180830381600087803b15801561193357600080fd5b505af1158015611947573d6000803e3d6000fd5b505050505050505050565b6000600382815481106119685761196761532d565b5b9060005260206000200160009054906101000a900473ffffffffffffffffffffffffffffffffffffffff1673ffffffffffffffffffffffffffffffffffffffff16635786fd406040518163ffffffff1660e01b815260040160206040518083038186803b1580156119d857600080fd5b505afa1580156119ec573d6000803e3d6000fd5b505050506040513d601f19601f82011682018060405250810190611a109190613d90565b9050919050565b600c6020528060005260406000206000915090505481565b60096020528060005260406000206000915090505481565b600b818051602081018201805184825260208301602085012081835280955050505050506000915054906101000a900460ff1681565b600d6020528060005260406000206000915090508054611a9c906151c5565b80601f0160208091040260200160405190810160405280929190818152602001828054611ac8906151c5565b8015611b155780601f10611aea57610100808354040283529160200191611b15565b820191906000526020600020905b815481529060010190602001808311611af857829003601f168201915b505050505081565b611b25612ce6565b606060038381548110611b3b57611b3a61532d565b5b9060005260206000200160009054906101000a900473ffffffffffffffffffffffffffffffffffffffff1673ffffffffffffffffffffffffffffffffffffffff1663c1d2b0bf6040518163ffffffff1660e01b815260040160006040518083038186803b158015611bab57600080fd5b505afa158015611bbf573d6000803e3d6000fd5b505050506040513d6000823e3d601f19601f82011682018060405250810190611be89190613ceb565b91509150915091565b8160038181548110611c0657611c0561532d565b5b9060005260206000200160009054906101000a900473ffffffffffffffffffffffffffffffffffffffff1673ffffffffffffffffffffffffffffffffffffffff1663893d20e86040518163ffffffff1660e01b815260040160206040518083038186803b158015611c7657600080fd5b505afa158015611c8a573d6000803e3d6000fd5b505050506040513d601f19601f82011682018060405250810190611cae91906139a6565b73ffffffffffffffffffffffffffffffffffffffff163373ffffffffffffffffffffffffffffffffffffffff1614611d1b576040517f08c379a0000000000000000000000000000000000000000000000000000000008152600401611d1290614bc6565b60405180910390fd5b60038381548110611d2f57611d2e61532d565b5b9060005260206000200160009054906101000a900473ffffffffffffffffffffffffffffffffffffffff1673ffffffffffffffffffffffffffffffffffffffff1663299d3614836040518263ffffffff1660e01b8152600401611d929190614acd565b600060405180830381600087803b158015611dac57600080fd5b505af1158015611dc0573d6000803e3d6000fd5b50505050505050565b611dd1612d48565b60038381548110611de557611de461532d565b5b9060005260206000200160009054906101000a900473ffffffffffffffffffffffffffffffffffffffff1673ffffffffffffffffffffffffffffffffffffffff1663b9db15b4836040518263ffffffff1660e01b8152600401611e489190614ca1565b60006040518083038186803b158015611e6057600080fd5b505afa158015611e74573d6000803e3d6000fd5b505050506040513d6000823e3d601f19601f82011682018060405250810190611e9d9190613c59565b905092915050565b81600d60003373ffffffffffffffffffffffffffffffffffffffff1673ffffffffffffffffffffffffffffffffffffffff1681526020019081526020016000209080519060200190611ef8929190612be1565b50600034905081600c60003373ffffffffffffffffffffffffffffffffffffffff1673ffffffffffffffffffffffffffffffffffffffff168152602001908152602001600020541015611f80576040517f08c379a0000000000000000000000000000000000000000000000000000000008152600401611f7790614b46565b60405180910390fd5b81600c60003373ffffffffffffffffffffffffffffffffffffffff1673ffffffffffffffffffffffffffffffffffffffff1681526020019081526020016000206000828254611fcf91906150a0565b925050819055508181611fe2919061504a565b905060005b84518110156120f6578481815181106120035761200261532d565b5b602002602001015160400151821015612051576040517f08c379a000000000000000000000000000000000000000000000000000000000815260040161204890614b66565b60405180910390fd5b8481815181106120645761206361532d565b5b6020026020010151604001518261207b91906150a0565b91506120e38582815181106120935761209261532d565b5b6020026020010151600001518683815181106120b2576120b161532d565b5b602002602001015160200151868885815181106120d2576120d161532d565b5b6020026020010151604001516124dd565b80806120ee90615228565b915050611fe7565b5050505050565b6060600382815481106121135761211261532d565b5b9060005260206000200160009054906101000a900473ffffffffffffffffffffffffffffffffffffffff1673ffffffffffffffffffffffffffffffffffffffff1663c29b2f206040518163ffffffff1660e01b815260040160006040518083038186803b15801561218357600080fd5b505afa158015612197573d6000803e3d6000fd5b505050506040513d6000823e3d601f19601f820116820180604052508101906121c09190613a5e565b9050919050565b6000600380549050905090565b85600381815481106121e9576121e861532d565b5b9060005260206000200160009054906101000a900473ffffffffffffffffffffffffffffffffffffffff1673ffffffffffffffffffffffffffffffffffffffff1663893d20e86040518163ffffffff1660e01b815260040160206040518083038186803b15801561225957600080fd5b505afa15801561226d573d6000803e3d6000fd5b505050506040513d601f19601f8201168201806040525081019061229191906139a6565b73ffffffffffffffffffffffffffffffffffffffff163373ffffffffffffffffffffffffffffffffffffffff16146122fe576040517f08c379a00000000000000000000000000000000000000000000000000000000081526004016122f590614bc6565b60405180910390fd5b600387815481106123125761231161532d565b5b9060005260206000200160009054906101000a900473ffffffffffffffffffffffffffffffffffffffff1673ffffffffffffffffffffffffffffffffffffffff16635389008a87878787876040518663ffffffff1660e01b815260040161237d959493929190614a06565b600060405180830381600087803b15801561239757600080fd5b505af11580156123ab573d6000803e3d6000fd5b50505050867f2a60815e9d2622a909b3c2b731fa879a529c93b5fecdb1cfea183695707572cc600160038a815481106123e7576123e661532d565b5b9060005260206000200160009054906101000a900473ffffffffffffffffffffffffffffffffffffffff1673ffffffffffffffffffffffffffffffffffffffff16635786fd406040518163ffffffff1660e01b815260040160206040518083038186803b15801561245757600080fd5b505afa15801561246b573d6000803e3d6000fd5b505050506040513d601f19601f8201168201806040525081019061248f9190613d90565b61249991906150a0565b6040516124a69190614ca1565b60405180910390a250505050505050565b600260009054906101000a900473ffffffffffffffffffffffffffffffffffffffff1681565b600384815481106124f1576124f061532d565b5b9060005260206000200160009054906101000a900473ffffffffffffffffffffffffffffffffffffffff1673ffffffffffffffffffffffffffffffffffffffff16635bf500b76005546004548461254891906150a0565b61255291906150a0565b3386866040518563ffffffff1660e01b8152600401612573939291906149c8565b6000604051808303818588803b15801561258c57600080fd5b505af11580156125a0573d6000803e3d6000fd5b50505050506000600385815481106125bb576125ba61532d565b5b9060005260206000200160009054906101000a900473ffffffffffffffffffffffffffffffffffffffff1673ffffffffffffffffffffffffffffffffffffffff1663d8f6d5966001600388815481106126175761261661532d565b5b9060005260206000200160009054906101000a900473ffffffffffffffffffffffffffffffffffffffff1673ffffffffffffffffffffffffffffffffffffffff1663dd8027db6040518163ffffffff1660e01b815260040160206040518083038186803b15801561268757600080fd5b505afa15801561269b573d6000803e3d6000fd5b505050506040513d601f19601f820116820180604052508101906126bf9190613d90565b6126c991906150a0565b6040518263ffffffff1660e01b81526004016126e59190614ca1565b60006040518083038186803b1580156126fd57600080fd5b505afa158015612711573d6000803e3d6000fd5b505050506040513d6000823e3d601f19601f8201168201806040525081019061273a9190613ca2565b90506000600386815481106127525761275161532d565b5b9060005260206000200160009054906101000a900473ffffffffffffffffffffffffffffffffffffffff1673ffffffffffffffffffffffffffffffffffffffff1663b9db15b4866040518263ffffffff1660e01b81526004016127b59190614ca1565b60006040518083038186803b1580156127cd57600080fd5b505afa1580156127e1573d6000803e3d6000fd5b505050506040513d6000823e3d601f19601f8201168201806040525081019061280a9190613c59565b9050600160009054906101000a900473ffffffffffffffffffffffffffffffffffffffff1673ffffffffffffffffffffffffffffffffffffffff1663b9da4af88260200151866040518363ffffffff1660e01b815260040161286d929190614aef565b600060405180830381600087803b15801561288757600080fd5b505af115801561289b573d6000803e3d6000fd5b50505050600060018060009054906101000a900473ffffffffffffffffffffffffffffffffffffffff1673ffffffffffffffffffffffffffffffffffffffff1663fbfa4b7f6040518163ffffffff1660e01b815260040160206040518083038186803b15801561290a57600080fd5b505afa15801561291e573d6000803e3d6000fd5b505050506040513d601f19601f820116820180604052508101906129429190613d90565b61294c91906150a0565b90506040518060600160405280828152602001888152602001600160038a8154811061297b5761297a61532d565b5b9060005260206000200160009054906101000a900473ffffffffffffffffffffffffffffffffffffffff1673ffffffffffffffffffffffffffffffffffffffff1663dd8027db6040518163ffffffff1660e01b815260040160206040518083038186803b1580156129eb57600080fd5b505afa1580156129ff573d6000803e3d6000fd5b505050506040513d601f19601f82011682018060405250810190612a239190613d90565b612a2d91906150a0565b8152506008600083815260200190815260200160002060008201518160000155602082015181600101556040820151816002015590505060068190806001815401808255809150506001900390600052602060002001600090919091909150556001600680549050612a9f91906150a0565b600960008381526020019081526020016000208190555082604001513373ffffffffffffffffffffffffffffffffffffffff16887f5cb9ba43d895b2b52a05833fb1e6a565cf3e245d62332664ecede22586f90184856000015151600160038d81548110612b1057612b0f61532d565b5b9060005260206000200160009054906101000a900473ffffffffffffffffffffffffffffffffffffffff1673ffffffffffffffffffffffffffffffffffffffff1663dd8027db6040518163ffffffff1660e01b815260040160206040518083038186803b158015612b8057600080fd5b505afa158015612b94573d6000803e3d6000fd5b505050506040513d601f19601f82011682018060405250810190612bb89190613d90565b612bc291906150a0565b604051612bd0929190614d6f565b60405180910390a450505050505050565b828054612bed906151c5565b90600052602060002090601f016020900481019282612c0f5760008555612c56565b82601f10612c2857805160ff1916838001178555612c56565b82800160010185558215612c56579182015b82811115612c55578251825591602001919060010190612c3a565b5b509050612c639190612da3565b5090565b604051806101000160405280600073ffffffffffffffffffffffffffffffffffffffff168152602001606081526020016000815260200160008152602001600081526020016060815260200160006004811115612cc757612cc66152a0565b5b815260200160006003811115612ce057612cdf6152a0565b5b81525090565b6040518060c00160405280600073ffffffffffffffffffffffffffffffffffffffff168152602001600073ffffffffffffffffffffffffffffffffffffffff168152602001606081526020016060815260200160008152602001600081525090565b60405180610140016040528060608152602001606081526020016000815260200160008152602001600081526020016000815260200160008152602001612d8d612dc0565b8152602001600015158152602001606081525090565b5b80821115612dbc576000816000905550600101612da4565b5090565b6040518060200160405280612dd3612dd9565b81525090565b6040518060800160405280600490602082028036833780820191505090505090565b6000612e0e612e0984614dbd565b614d98565b90508083825260208201905082856020860282011115612e3157612e3061539a565b5b60005b85811015612e7f57813567ffffffffffffffff811115612e5757612e5661538b565b5b808601612e648982613450565b85526020850194506020840193505050600181019050612e34565b5050509392505050565b6000612e9c612e9784614dbd565b614d98565b90508083825260208201905082856020860282011115612ebf57612ebe61539a565b5b60005b85811015612f0d57815167ffffffffffffffff811115612ee557612ee461538b565b5b808601612ef2898261347e565b85526020850194506020840193505050600181019050612ec2565b5050509392505050565b6000612f2a612f2584614de9565b614d98565b90508083825260208201905082856040860282011115612f4d57612f4c61539a565b5b60005b85811015612f7d5781612f6388826134ac565b845260208401935060408301925050600181019050612f50565b5050509392505050565b6000612f9a612f9584614de9565b614d98565b90508083825260208201905082856040860282011115612fbd57612fbc61539a565b5b60005b85811015612fed5781612fd388826134fc565b845260208401935060408301925050600181019050612fc0565b5050509392505050565b600061300a61300584614e15565b614d98565b9050808382526020820190508285606086028201111561302d5761302c61539a565b5b60005b8581101561305d5781613043888261354c565b845260208401935060608301925050600181019050613030565b5050509392505050565b600061307a61307584614e41565b614d98565b9050808382526020820190508285602086028201111561309d5761309c61539a565b5b60005b858110156130eb57815167ffffffffffffffff8111156130c3576130c261538b565b5b8086016130d089826135b0565b855260208501945060208401935050506001810190506130a0565b5050509392505050565b600061310861310384614e6d565b614d98565b9050808382526020820190508285602086028201111561312b5761312a61539a565b5b60005b8581101561315b57816131418882613925565b84526020840193506020830192505060018101905061312e565b5050509392505050565b600061317861317384614e99565b614d98565b905080828560208602820111156131925761319161539a565b5b60005b858110156131c257816131a8888261393a565b845260208401935060208301925050600181019050613195565b5050509392505050565b60006131df6131da84614ebf565b614d98565b9050828152602081018484840111156131fb576131fa61539f565b5b613206848285615183565b509392505050565b600061322161321c84614ebf565b614d98565b90508281526020810184848401111561323d5761323c61539f565b5b613248848285615192565b509392505050565b60008135905061325f816155c7565b92915050565b600081519050613274816155c7565b92915050565b600082601f83011261328f5761328e61538b565b5b813561329f848260208601612dfb565b91505092915050565b600082601f8301126132bd576132bc61538b565b5b81516132cd848260208601612e89565b91505092915050565b600082601f8301126132eb576132ea61538b565b5b81356132fb848260208601612f17565b91505092915050565b600082601f8301126133195761331861538b565b5b8151613329848260208601612f87565b91505092915050565b600082601f8301126133475761334661538b565b5b8135613357848260208601612ff7565b91505092915050565b600082601f8301126133755761337461538b565b5b8151613385848260208601613067565b91505092915050565b600082601f8301126133a3576133a261538b565b5b81516133b38482602086016130f5565b91505092915050565b600082601f8301126133d1576133d061538b565b5b60046133de848285613165565b91505092915050565b6000813590506133f6816155de565b92915050565b60008151905061340b816155de565b92915050565b600081359050613420816155f5565b92915050565b600081519050613435816155f5565b92915050565b60008151905061344a81615605565b92915050565b600082601f8301126134655761346461538b565b5b81356134758482602086016131cc565b91505092915050565b600082601f8301126134935761349261538b565b5b81516134a384826020860161320e565b91505092915050565b6000604082840312156134c2576134c1615390565b5b6134cc6040614d98565b905060006134dc84828501613250565b60008301525060206134f08482850161394f565b60208301525092915050565b60006040828403121561351257613511615390565b5b61351c6040614d98565b9050600061352c84828501613265565b600083015250602061354084828501613964565b60208301525092915050565b60006060828403121561356257613561615390565b5b61356c6060614d98565b9050600061357c84828501613910565b600083015250602061359084828501613910565b60208301525060406135a484828501613910565b60408301525092915050565b60006101a082840312156135c7576135c6615390565b5b6135d2610140614d98565b9050600082015167ffffffffffffffff8111156135f2576135f1615395565b5b6135fe848285016132a8565b600083015250602082015167ffffffffffffffff81111561362257613621615395565b5b61362e8482850161347e565b602083015250604061364284828501613925565b604083015250606061365684828501613925565b606083015250608061366a84828501613925565b60808301525060a061367e84828501613925565b60a08301525060c061369284828501613925565b60c08301525060e06136a6848285016136fa565b60e0830152506101606136bb848285016133fc565b6101008301525061018082015167ffffffffffffffff8111156136e1576136e0615395565b5b6136ed8482850161347e565b6101208301525092915050565b6000608082840312156137105761370f615390565b5b61371a6020614d98565b9050600061372a848285016133bc565b60008301525092915050565b6000610100828403121561374d5761374c615390565b5b613758610100614d98565b9050600061376884828501613265565b600083015250602082015167ffffffffffffffff81111561378c5761378b615395565b5b6137988482850161347e565b60208301525060406137ac84828501613925565b60408301525060606137c084828501613925565b60608301525060806137d484828501613925565b60808301525060a082015167ffffffffffffffff8111156137f8576137f7615395565b5b6138048482850161347e565b60a08301525060c061381884828501613426565b60c08301525060e061382c8482850161343b565b60e08301525092915050565b600060c0828403121561384e5761384d615390565b5b61385860c0614d98565b9050600061386884828501613265565b600083015250602061387c84828501613265565b602083015250604082015167ffffffffffffffff8111156138a05761389f615395565b5b6138ac8482850161347e565b604083015250606082015167ffffffffffffffff8111156138d0576138cf615395565b5b6138dc8482850161347e565b60608301525060806138f084828501613925565b60808301525060a061390484828501613925565b60a08301525092915050565b60008135905061391f81615615565b92915050565b60008151905061393481615615565b92915050565b6000815190506139498161562c565b92915050565b60008135905061395e81615643565b92915050565b60008151905061397381615643565b92915050565b60006020828403121561398f5761398e6153a9565b5b600061399d84828501613250565b91505092915050565b6000602082840312156139bc576139bb6153a9565b5b60006139ca84828501613265565b91505092915050565b6000806000606084860312156139ec576139eb6153a9565b5b600084013567ffffffffffffffff811115613a0a57613a096153a4565b5b613a1686828701613332565b935050602084013567ffffffffffffffff811115613a3757613a366153a4565b5b613a4386828701613450565b9250506040613a5486828701613910565b9150509250925092565b600060208284031215613a7457613a736153a9565b5b600082015167ffffffffffffffff811115613a9257613a916153a4565b5b613a9e84828501613360565b91505092915050565b600060208284031215613abd57613abc6153a9565b5b600082015167ffffffffffffffff811115613adb57613ada6153a4565b5b613ae78482850161338e565b91505092915050565b600060208284031215613b0657613b056153a9565b5b600082013567ffffffffffffffff811115613b2457613b236153a4565b5b613b3084828501613450565b91505092915050565b600060208284031215613b4f57613b4e6153a9565b5b600082015167ffffffffffffffff811115613b6d57613b6c6153a4565b5b613b798482850161347e565b91505092915050565b60008060008060808587031215613b9c57613b9b6153a9565b5b600085013567ffffffffffffffff811115613bba57613bb96153a4565b5b613bc687828801613450565b945050602085013567ffffffffffffffff811115613be757613be66153a4565b5b613bf387828801613450565b935050604085013567ffffffffffffffff811115613c1457613c136153a4565b5b613c20878288016132d6565b925050606085013567ffffffffffffffff811115613c4157613c406153a4565b5b613c4d87828801613450565b91505092959194509250565b600060208284031215613c6f57613c6e6153a9565b5b600082015167ffffffffffffffff811115613c8d57613c8c6153a4565b5b613c99848285016135b0565b91505092915050565b600060208284031215613cb857613cb76153a9565b5b600082015167ffffffffffffffff811115613cd657613cd56153a4565b5b613ce284828501613736565b91505092915050565b60008060408385031215613d0257613d016153a9565b5b600083015167ffffffffffffffff811115613d2057613d1f6153a4565b5b613d2c85828601613838565b925050602083015167ffffffffffffffff811115613d4d57613d4c6153a4565b5b613d5985828601613304565b9150509250929050565b600060208284031215613d7957613d786153a9565b5b6000613d8784828501613910565b91505092915050565b600060208284031215613da657613da56153a9565b5b6000613db484828501613925565b91505092915050565b60008060008060008060c08789031215613dda57613dd96153a9565b5b6000613de889828a01613910565b965050602087013567ffffffffffffffff811115613e0957613e086153a4565b5b613e1589828a0161327a565b955050604087013567ffffffffffffffff811115613e3657613e356153a4565b5b613e4289828a01613450565b945050606087013567ffffffffffffffff811115613e6357613e626153a4565b5b613e6f89828a01613450565b9350506080613e8089828a01613910565b92505060a0613e9189828a01613910565b9150509295509295509295565b60008060408385031215613eb557613eb46153a9565b5b6000613ec385828601613910565b925050602083013567ffffffffffffffff811115613ee457613ee36153a4565b5b613ef085828601613450565b9150509250929050565b60008060408385031215613f1157613f106153a9565b5b6000613f1f85828601613910565b9250506020613f3085828601613910565b9150509250929050565b600080600060608486031215613f5357613f526153a9565b5b6000613f6186828701613910565b9350506020613f7286828701613910565b9250506040613f8386828701613411565b9150509250925092565b60008060008060008060c08789031215613faa57613fa96153a9565b5b6000613fb889828a01613910565b9650506020613fc989828a01613910565b955050604087013567ffffffffffffffff811115613fea57613fe96153a4565b5b613ff689828a01613450565b945050606061400789828a01613910565b935050608061401889828a01613910565b92505060a061402989828a016133e7565b9150509295509295509295565b60006140428383614381565b905092915050565b6000614056838361453c565b60408301905092915050565b600061406e838361456b565b905092915050565b6000614082838361489e565b60208301905092915050565b600061409a83836148bc565b60208301905092915050565b6140af816150d4565b82525050565b6140be816150d4565b82525050565b60006140cf82614f3a565b6140d98185614fbd565b9350836020820285016140eb85614ef0565b8060005b8581101561412757848403895281516141088582614036565b945061411383614f7c565b925060208a019950506001810190506140ef565b50829750879550505050505092915050565b600061414482614f3a565b61414e8185614fce565b93508360208202850161416085614ef0565b8060005b8581101561419c578484038952815161417d8582614036565b945061418883614f7c565b925060208a01995050600181019050614164565b50829750879550505050505092915050565b60006141b982614f45565b6141c38185614fdf565b93506141ce83614f00565b8060005b838110156141ff5781516141e6888261404a565b97506141f183614f89565b9250506001810190506141d2565b5085935050505092915050565b600061421782614f50565b6142218185614ff0565b93508360208202850161423385614f10565b8060005b8581101561426f57848403895281516142508582614062565b945061425b83614f96565b925060208a01995050600181019050614237565b50829750879550505050505092915050565b600061428c82614f5b565b6142968185615001565b93506142a183614f20565b8060005b838110156142d25781516142b98882614076565b97506142c483614fa3565b9250506001810190506142a5565b5085935050505092915050565b6142e881614f66565b6142f28184615012565b92506142fd82614f30565b8060005b8381101561432e578151614315878261408e565b965061432083614fb0565b925050600181019050614301565b505050505050565b61433f816150e6565b82525050565b61434e816150e6565b82525050565b61435d8161515f565b82525050565b61436c8161515f565b82525050565b61437b81615171565b82525050565b600061438c82614f71565b614396818561501d565b93506143a6818560208601615192565b6143af816153ae565b840191505092915050565b60006143c582614f71565b6143cf818561502e565b93506143df818560208601615192565b6143e8816153ae565b840191505092915050565b60006143fe82614f71565b614408818561503f565b9350614418818560208601615192565b80840191505092915050565b600061443160178361502e565b915061443c826153bf565b602082019050919050565b600061445460128361502e565b915061445f826153e8565b602082019050919050565b600061447760108361502e565b915061448282615411565b602082019050919050565b600061449a60138361502e565b91506144a58261543a565b602082019050919050565b60006144bd60298361502e565b91506144c882615463565b604082019050919050565b60006144e060268361502e565b91506144eb826154b2565b604082019050919050565b600061450360218361502e565b915061450e82615501565b604082019050919050565b600061452660218361502e565b915061453182615550565b604082019050919050565b60408201600082015161455260008501826140a6565b50602082015161456560208501826148cb565b50505050565b60006101a083016000830151848203600086015261458982826140c4565b915050602083015184820360208601526145a38282614381565b91505060408301516145b8604086018261489e565b5060608301516145cb606086018261489e565b5060808301516145de608086018261489e565b5060a08301516145f160a086018261489e565b5060c083015161460460c086018261489e565b5060e083015161461760e086018261473b565b5061010083015161462c610160860182614336565b506101208301518482036101808601526146468282614381565b9150508091505092915050565b60006101a083016000830151848203600086015261467182826140c4565b9150506020830151848203602086015261468b8282614381565b91505060408301516146a0604086018261489e565b5060608301516146b3606086018261489e565b5060808301516146c6608086018261489e565b5060a08301516146d960a086018261489e565b5060c08301516146ec60c086018261489e565b5060e08301516146ff60e086018261473b565b50610100830151614714610160860182614336565b5061012083015184820361018086015261472e8282614381565b9150508091505092915050565b60808201600082015161475160008501826142df565b50505050565b60006101008301600083015161477060008601826140a6565b50602083015184820360208601526147888282614381565b915050604083015161479d604086018261489e565b5060608301516147b0606086018261489e565b5060808301516147c3608086018261489e565b5060a083015184820360a08601526147db8282614381565b91505060c08301516147f060c0860182614354565b5060e083015161480360e0860182614372565b508091505092915050565b600060c08301600083015161482660008601826140a6565b50602083015161483960208601826140a6565b50604083015184820360408601526148518282614381565b9150506060830151848203606086015261486b8282614381565b9150506080830151614880608086018261489e565b5060a083015161489360a086018261489e565b508091505092915050565b6148a781615138565b82525050565b6148b681615138565b82525050565b6148c581615142565b82525050565b6148d481615152565b82525050565b6148e381615152565b82525050565b60006148f582846143f3565b915081905092915050565b600060208201905061491560008301846140b5565b92915050565b600060a08201905061493060008301886140b5565b61493d60208301876140b5565b61494a60408301866140b5565b61495760608301856148ad565b61496460808301846148ad565b9695505050505050565b600060808201905061498360008301876140b5565b818103602083015261499581866143ba565b905081810360408301526149a981856143ba565b905081810360608301526149bd81846141ae565b905095945050505050565b60006060820190506149dd60008301866140b5565b6149ea60208301856148ad565b81810360408301526149fc81846143ba565b9050949350505050565b600060a0820190508181036000830152614a208188614139565b90508181036020830152614a3481876143ba565b90508181036040830152614a4881866143ba565b9050614a5760608301856148ad565b614a6460808301846148ad565b9695505050505050565b60006020820190508181036000830152614a88818461420c565b905092915050565b60006020820190508181036000830152614aaa8184614281565b905092915050565b6000602082019050614ac76000830184614345565b92915050565b60006020820190508181036000830152614ae781846143ba565b905092915050565b60006040820190508181036000830152614b0981856143ba565b90508181036020830152614b1d81846143ba565b90509392505050565b60006020820190508181036000830152614b3f81614424565b9050919050565b60006020820190508181036000830152614b5f81614447565b9050919050565b60006020820190508181036000830152614b7f8161446a565b9050919050565b60006020820190508181036000830152614b9f8161448d565b9050919050565b60006020820190508181036000830152614bbf816144b0565b9050919050565b60006020820190508181036000830152614bdf816144d3565b9050919050565b60006020820190508181036000830152614bff816144f6565b9050919050565b60006020820190508181036000830152614c1f81614519565b9050919050565b60006020820190508181036000830152614c408184614653565b905092915050565b60006020820190508181036000830152614c628184614757565b905092915050565b60006040820190508181036000830152614c84818561480e565b90508181036020830152614c9881846141ae565b90509392505050565b6000602082019050614cb660008301846148ad565b92915050565b6000604082019050614cd160008301856148ad565b614cde6020830184614363565b9392505050565b6000604082019050614cfa60008301856148ad565b8181036020830152614d0c81846143ba565b90509392505050565b600060a082019050614d2a60008301886148ad565b8181036020830152614d3c81876143ba565b9050614d4b60408301866148ad565b614d5860608301856148ad565b614d656080830184614345565b9695505050505050565b6000604082019050614d8460008301856148da565b614d9160208301846148ad565b9392505050565b6000614da2614db3565b9050614dae82826151f7565b919050565b6000604051905090565b600067ffffffffffffffff821115614dd857614dd761535c565b5b602082029050602081019050919050565b600067ffffffffffffffff821115614e0457614e0361535c565b5b602082029050602081019050919050565b600067ffffffffffffffff821115614e3057614e2f61535c565b5b602082029050602081019050919050565b600067ffffffffffffffff821115614e5c57614e5b61535c565b5b602082029050602081019050919050565b600067ffffffffffffffff821115614e8857614e8761535c565b5b602082029050602081019050919050565b600067ffffffffffffffff821115614eb457614eb361535c565b5b602082029050919050565b600067ffffffffffffffff821115614eda57614ed961535c565b5b614ee3826153ae565b9050602081019050919050565b6000819050602082019050919050565b6000819050602082019050919050565b6000819050602082019050919050565b6000819050602082019050919050565b6000819050919050565b600081519050919050565b600081519050919050565b600081519050919050565b600081519050919050565b600060049050919050565b600081519050919050565b6000602082019050919050565b6000602082019050919050565b6000602082019050919050565b6000602082019050919050565b6000602082019050919050565b600082825260208201905092915050565b600082825260208201905092915050565b600082825260208201905092915050565b600082825260208201905092915050565b600082825260208201905092915050565b600081905092915050565b600082825260208201905092915050565b600082825260208201905092915050565b600081905092915050565b600061505582615138565b915061506083615138565b9250827fffffffffffffffffffffffffffffffffffffffffffffffffffffffffffffffff0382111561509557615094615271565b5b828201905092915050565b60006150ab82615138565b91506150b683615138565b9250828210156150c9576150c8615271565b5b828203905092915050565b60006150df82615118565b9050919050565b60008115159050919050565b60008190506151008261559f565b919050565b6000819050615113826155b3565b919050565b600073ffffffffffffffffffffffffffffffffffffffff82169050919050565b6000819050919050565b600063ffffffff82169050919050565b600060ff82169050919050565b600061516a826150f2565b9050919050565b600061517c82615105565b9050919050565b82818337600083830152505050565b60005b838110156151b0578082015181840152602081019050615195565b838111156151bf576000848401525b50505050565b600060028204905060018216806151dd57607f821691505b602082108114156151f1576151f06152cf565b5b50919050565b615200826153ae565b810181811067ffffffffffffffff8211171561521f5761521e61535c565b5b80604052505050565b600061523382615138565b91507fffffffffffffffffffffffffffffffffffffffffffffffffffffffffffffffff82141561526657615265615271565b5b600182019050919050565b7f4e487b7100000000000000000000000000000000000000000000000000000000600052601160045260246000fd5b7f4e487b7100000000000000000000000000000000000000000000000000000000600052602160045260246000fd5b7f4e487b7100000000000000000000000000000000000000000000000000000000600052602260045260246000fd5b7f4e487b7100000000000000000000000000000000000000000000000000000000600052603160045260246000fd5b7f4e487b7100000000000000000000000000000000000000000000000000000000600052603260045260246000fd5b7f4e487b7100000000000000000000000000000000000000000000000000000000600052604160045260246000fd5b600080fd5b600080fd5b600080fd5b600080fd5b600080fd5b600080fd5b600080fd5b6000601f19601f8301169050919050565b7f53686f70206e616d6520616c72656164792074616b656e000000000000000000600082015250565b7f4e6f7420656e6f75676820637265646974730000000000000000000000000000600082015250565b7f4e6f7420656e6f7567682066756e647300000000000000000000000000000000600082015250565b7f53686f7020646f6573206e6f7420657869737400000000000000000000000000600082015250565b7f4f6e6c79206f7261636c6520636c69656e742063616e2063616c6c207468652060008201527f66756e6374696f6e210000000000000000000000000000000000000000000000602082015250565b7f6f6e6c792073686f70206f776e65722063616e2063616c6c207468652066756e60008201527f6374696f6e210000000000000000000000000000000000000000000000000000602082015250565b7f4f6e6c79206f776e65722063616e2063616c6c207468652066756e6374696f6e60008201527f2100000000000000000000000000000000000000000000000000000000000000602082015250565b7f4f6e6c792062757965722063616e2063616c6c207468652066756e6374696f6e60008201527f2100000000000000000000000000000000000000000000000000000000000000602082015250565b600581106155b0576155af6152a0565b5b50565b600481106155c4576155c36152a0565b5b50565b6155d0816150d4565b81146155db57600080fd5b50565b6155e7816150e6565b81146155f257600080fd5b50565b6005811061560257600080fd5b50565b6004811061561257600080fd5b50565b61561e81615138565b811461562957600080fd5b50565b61563581615142565b811461564057600080fd5b50565b61564c81615152565b811461565757600080fd5b5056fea2646970667358221220d435bffe5f79e71a8cb147205290ba3812c45ffb93a7bb0755131e823439627f64736f6c63430008070033",
  "linkReferences": {},
  "deployedLinkReferences": {}
}