{
  "_format": "hh-sol-artifact-1",
  "contractName": "Guild",
  "sourceName": "contracts/Guild.sol",
  "abi": [
    {
      "inputs": [
        {
          "internalType": "address",
          "name": "_oracleClient",
          "type": "address"
        },
        {
          "internalType": "address",
          "name": "_shopFactory",
          "type": "address"
        }
      ],
      "stateMutability": "nonpayable",
      "type": "constructor"
    },
    {
      "anonymous": false,
      "inputs": [
        {
          "indexed": true,
          "internalType": "uint256",
          "name": "shopId",
          "type": "uint256"
        },
        {
          "indexed": false,
          "internalType": "uint256",
          "name": "productId",
          "type": "uint256"
        }
      ],
      "name": "ProductCreated",
      "type": "event"
    },
    {
      "anonymous": false,
      "inputs": [
        {
          "indexed": true,
          "internalType": "uint256",
          "name": "shopId",
          "type": "uint256"
        },
        {
          "indexed": true,
          "internalType": "address",
          "name": "buyer",
          "type": "address"
        },
        {
          "indexed": true,
          "internalType": "uint256",
          "name": "productId",
          "type": "uint256"
        },
        {
          "indexed": false,
          "internalType": "uint8",
          "name": "contentVersion",
          "type": "uint8"
        },
        {
          "indexed": false,
          "internalType": "uint256",
          "name": "saleId",
          "type": "uint256"
        }
      ],
      "name": "RequestedSale",
      "type": "event"
    },
    {
      "anonymous": false,
      "inputs": [
        {
          "indexed": false,
          "internalType": "uint256",
          "name": "shopId",
          "type": "uint256"
        },
        {
          "indexed": true,
          "internalType": "address",
          "name": "owner",
          "type": "address"
        }
      ],
      "name": "ShopCreated",
      "type": "event"
    },
    {
      "inputs": [
        {
          "internalType": "uint256",
          "name": "_shopId",
          "type": "uint256"
        },
        {
          "internalType": "string[]",
          "name": "_contentCID",
          "type": "string[]"
        },
        {
          "internalType": "string",
          "name": "_lockedLicense",
          "type": "string"
        },
        {
          "internalType": "uint256",
          "name": "_price",
          "type": "uint256"
        },
        {
          "internalType": "uint256",
          "name": "_stock",
          "type": "uint256"
        }
      ],
      "name": "addProduct",
      "outputs": [],
      "stateMutability": "nonpayable",
      "type": "function"
    },
    {
      "inputs": [
        {
          "internalType": "uint256",
          "name": "_shopId",
          "type": "uint256"
        },
        {
          "internalType": "uint256",
          "name": "_saleId",
          "type": "uint256"
        },
        {
          "internalType": "enum IShop.RatingOptions",
          "name": "_rating",
          "type": "uint8"
        }
      ],
      "name": "addRating",
      "outputs": [],
      "stateMutability": "nonpayable",
      "type": "function"
    },
    {
      "inputs": [
        {
          "internalType": "address",
          "name": "",
          "type": "address"
        }
      ],
      "name": "buyerCredits",
      "outputs": [
        {
          "internalType": "uint256",
          "name": "",
          "type": "uint256"
        }
      ],
      "stateMutability": "view",
      "type": "function"
    },
    {
      "inputs": [
        {
          "internalType": "address",
          "name": "",
          "type": "address"
        }
      ],
      "name": "buyerPublicKeys",
      "outputs": [
        {
          "internalType": "string",
          "name": "",
          "type": "string"
        }
      ],
      "stateMutability": "view",
      "type": "function"
    },
    {
      "inputs": [
        {
          "internalType": "address",
          "name": "_oracle",
          "type": "address"
        }
      ],
      "name": "changeOracle",
      "outputs": [],
      "stateMutability": "nonpayable",
      "type": "function"
    },
    {
      "inputs": [
        {
          "components": [
            {
              "internalType": "uint256",
              "name": "shopId",
              "type": "uint256"
            },
            {
              "internalType": "uint256",
              "name": "productId",
              "type": "uint256"
            },
            {
              "internalType": "uint256",
              "name": "amount",
              "type": "uint256"
            }
          ],
          "internalType": "struct Guild.CartItem[]",
          "name": "_cartItems",
          "type": "tuple[]"
        },
        {
          "internalType": "string",
          "name": "_publicKey",
          "type": "string"
        },
        {
          "internalType": "uint256",
          "name": "_redeemCredits",
          "type": "uint256"
        }
      ],
      "name": "checkoutCart",
      "outputs": [],
      "stateMutability": "payable",
      "type": "function"
    },
    {
      "inputs": [
        {
          "internalType": "uint256",
          "name": "_requestId",
          "type": "uint256"
        },
        {
          "internalType": "string",
          "name": "_unlockedLicense",
          "type": "string"
        }
      ],
      "name": "completeUnlock",
      "outputs": [],
      "stateMutability": "nonpayable",
      "type": "function"
    },
    {
      "inputs": [
        {
          "internalType": "string",
          "name": "_shopName",
          "type": "string"
        },
        {
          "internalType": "string",
          "name": "_detailsCId",
          "type": "string"
        },
        {
          "components": [
            {
              "internalType": "address",
              "name": "addr",
              "type": "address"
            },
            {
              "internalType": "uint8",
              "name": "share",
              "type": "uint8"
            }
          ],
          "internalType": "struct IShop.Beneficiary[]",
          "name": "_beneficiaries",
          "type": "tuple[]"
        }
      ],
      "name": "createShop",
      "outputs": [],
      "stateMutability": "nonpayable",
      "type": "function"
    },
    {
      "inputs": [
        {
          "internalType": "uint256",
          "name": "_shopId",
          "type": "uint256"
        }
      ],
      "name": "getBeneficiaries",
      "outputs": [
        {
          "components": [
            {
              "internalType": "address",
              "name": "addr",
              "type": "address"
            },
            {
              "internalType": "uint8",
              "name": "share",
              "type": "uint8"
            }
          ],
          "internalType": "struct IShop.Beneficiary[]",
          "name": "",
          "type": "tuple[]"
        }
      ],
      "stateMutability": "view",
      "type": "function"
    },
    {
      "inputs": [],
      "name": "getGuildInfo",
      "outputs": [
        {
          "internalType": "address",
          "name": "",
          "type": "address"
        },
        {
          "internalType": "address",
          "name": "",
          "type": "address"
        },
        {
          "internalType": "address",
          "name": "",
          "type": "address"
        },
        {
          "internalType": "uint256",
          "name": "",
          "type": "uint256"
        },
        {
          "internalType": "uint256",
          "name": "",
          "type": "uint256"
        }
      ],
      "stateMutability": "view",
      "type": "function"
    },
    {
      "inputs": [
        {
          "internalType": "uint256",
          "name": "_shopId",
          "type": "uint256"
        }
      ],
      "name": "getOpenSaleIds",
      "outputs": [
        {
          "internalType": "uint256[]",
          "name": "",
          "type": "uint256[]"
        }
      ],
      "stateMutability": "view",
      "type": "function"
    },
    {
      "inputs": [
        {
          "internalType": "uint256",
          "name": "_shopId",
          "type": "uint256"
        },
        {
          "internalType": "uint256",
          "name": "_productId",
          "type": "uint256"
        }
      ],
      "name": "getProductInfo",
      "outputs": [
        {
          "components": [
            {
              "internalType": "string[]",
              "name": "contentCID",
              "type": "string[]"
            },
            {
              "internalType": "string",
              "name": "lockedLicense",
              "type": "string"
            },
            {
              "internalType": "uint256",
              "name": "price",
              "type": "uint256"
            },
            {
              "internalType": "uint256",
              "name": "stock",
              "type": "uint256"
            },
            {
              "internalType": "uint256",
              "name": "salesCount",
              "type": "uint256"
            },
            {
              "internalType": "uint256",
              "name": "revenue",
              "type": "uint256"
            },
            {
              "internalType": "uint256",
              "name": "creationTime",
              "type": "uint256"
            },
            {
              "components": [
                {
                  "internalType": "uint32[4]",
                  "name": "ratingsCount",
                  "type": "uint32[4]"
                }
              ],
              "internalType": "struct IShop.Ratings",
              "name": "ratings",
              "type": "tuple"
            },
            {
              "internalType": "bool",
              "name": "isAvailable",
              "type": "bool"
            }
          ],
          "internalType": "struct IShop.Product",
          "name": "",
          "type": "tuple"
        }
      ],
      "stateMutability": "view",
      "type": "function"
    },
    {
      "inputs": [
        {
          "internalType": "uint256",
          "name": "_shopId",
          "type": "uint256"
        }
      ],
      "name": "getProducts",
      "outputs": [
        {
          "components": [
            {
              "internalType": "string[]",
              "name": "contentCID",
              "type": "string[]"
            },
            {
              "internalType": "string",
              "name": "lockedLicense",
              "type": "string"
            },
            {
              "internalType": "uint256",
              "name": "price",
              "type": "uint256"
            },
            {
              "internalType": "uint256",
              "name": "stock",
              "type": "uint256"
            },
            {
              "internalType": "uint256",
              "name": "salesCount",
              "type": "uint256"
            },
            {
              "internalType": "uint256",
              "name": "revenue",
              "type": "uint256"
            },
            {
              "internalType": "uint256",
              "name": "creationTime",
              "type": "uint256"
            },
            {
              "components": [
                {
                  "internalType": "uint32[4]",
                  "name": "ratingsCount",
                  "type": "uint32[4]"
                }
              ],
              "internalType": "struct IShop.Ratings",
              "name": "ratings",
              "type": "tuple"
            },
            {
              "internalType": "bool",
              "name": "isAvailable",
              "type": "bool"
            }
          ],
          "internalType": "struct IShop.Product[]",
          "name": "",
          "type": "tuple[]"
        }
      ],
      "stateMutability": "view",
      "type": "function"
    },
    {
      "inputs": [
        {
          "internalType": "uint256",
          "name": "_shopId",
          "type": "uint256"
        }
      ],
      "name": "getProductsCount",
      "outputs": [
        {
          "internalType": "uint256",
          "name": "",
          "type": "uint256"
        }
      ],
      "stateMutability": "view",
      "type": "function"
    },
    {
      "inputs": [
        {
          "internalType": "uint256",
          "name": "_shopId",
          "type": "uint256"
        },
        {
          "internalType": "uint256",
          "name": "_saleId",
          "type": "uint256"
        }
      ],
      "name": "getRefund",
      "outputs": [],
      "stateMutability": "payable",
      "type": "function"
    },
    {
      "inputs": [
        {
          "internalType": "uint256",
          "name": "_shopId",
          "type": "uint256"
        },
        {
          "internalType": "uint256",
          "name": "_saleId",
          "type": "uint256"
        }
      ],
      "name": "getSaleInfo",
      "outputs": [
        {
          "components": [
            {
              "internalType": "address",
              "name": "buyer",
              "type": "address"
            },
            {
              "internalType": "string",
              "name": "publicKey",
              "type": "string"
            },
            {
              "internalType": "uint256",
              "name": "productId",
              "type": "uint256"
            },
            {
              "internalType": "uint256",
              "name": "amount",
              "type": "uint256"
            },
            {
              "internalType": "uint256",
              "name": "saleDeadline",
              "type": "uint256"
            },
            {
              "internalType": "string",
              "name": "unlockedLicense",
              "type": "string"
            },
            {
              "internalType": "enum IShop.RatingOptions",
              "name": "rating",
              "type": "uint8"
            },
            {
              "internalType": "enum IShop.SaleStatus",
              "name": "status",
              "type": "uint8"
            }
          ],
          "internalType": "struct IShop.Sale",
          "name": "",
          "type": "tuple"
        }
      ],
      "stateMutability": "view",
      "type": "function"
    },
    {
      "inputs": [],
      "name": "getShopCount",
      "outputs": [
        {
          "internalType": "uint256",
          "name": "",
          "type": "uint256"
        }
      ],
      "stateMutability": "view",
      "type": "function"
    },
    {
      "inputs": [
        {
          "internalType": "string",
          "name": "_shopName",
          "type": "string"
        }
      ],
      "name": "getShopIdFromHandle",
      "outputs": [
        {
          "internalType": "uint256",
          "name": "",
          "type": "uint256"
        }
      ],
      "stateMutability": "view",
      "type": "function"
    },
    {
      "inputs": [
        {
          "internalType": "uint256",
          "name": "_shopId",
          "type": "uint256"
        }
      ],
      "name": "getShopInfo",
      "outputs": [
        {
          "components": [
            {
              "internalType": "address",
              "name": "guild",
              "type": "address"
            },
            {
              "internalType": "address",
              "name": "owner",
              "type": "address"
            },
            {
              "internalType": "string",
              "name": "detailsCId",
              "type": "string"
            },
            {
              "internalType": "string",
              "name": "shopName",
              "type": "string"
            },
            {
              "internalType": "uint256",
              "name": "productsCount",
              "type": "uint256"
            },
            {
              "internalType": "uint256",
              "name": "salesCount",
              "type": "uint256"
            }
          ],
          "internalType": "struct IShop.ShopInfo",
          "name": "",
          "type": "tuple"
        }
      ],
      "stateMutability": "view",
      "type": "function"
    },
    {
      "inputs": [
        {
          "internalType": "string",
          "name": "",
          "type": "string"
        }
      ],
      "name": "isShopNameTaken",
      "outputs": [
        {
          "internalType": "bool",
          "name": "",
          "type": "bool"
        }
      ],
      "stateMutability": "view",
      "type": "function"
    },
    {
      "inputs": [
        {
          "internalType": "uint256",
          "name": "",
          "type": "uint256"
        }
      ],
      "name": "requestIdToRequestIndex",
      "outputs": [
        {
          "internalType": "uint256",
          "name": "",
          "type": "uint256"
        }
      ],
      "stateMutability": "view",
      "type": "function"
    },
    {
      "inputs": [
        {
          "internalType": "uint256",
          "name": "_newRatingReward",
          "type": "uint256"
        }
      ],
      "name": "setRatingReward",
      "outputs": [],
      "stateMutability": "nonpayable",
      "type": "function"
    },
    {
      "inputs": [
        {
          "internalType": "uint256",
          "name": "_newServiceTax",
          "type": "uint256"
        }
      ],
      "name": "setServiceTax",
      "outputs": [],
      "stateMutability": "nonpayable",
      "type": "function"
    },
    {
      "inputs": [],
      "name": "shopFactory",
      "outputs": [
        {
          "internalType": "address",
          "name": "",
          "type": "address"
        }
      ],
      "stateMutability": "view",
      "type": "function"
    },
    {
      "inputs": [
        {
          "internalType": "string",
          "name": "",
          "type": "string"
        }
      ],
      "name": "shopNameToShopId",
      "outputs": [
        {
          "internalType": "uint256",
          "name": "",
          "type": "uint256"
        }
      ],
      "stateMutability": "view",
      "type": "function"
    },
    {
      "inputs": [
        {
          "internalType": "uint256",
          "name": "",
          "type": "uint256"
        }
      ],
      "name": "shops",
      "outputs": [
        {
          "internalType": "address",
          "name": "",
          "type": "address"
        }
      ],
      "stateMutability": "view",
      "type": "function"
    },
    {
      "inputs": [
        {
          "internalType": "uint256",
          "name": "_shopId",
          "type": "uint256"
        },
        {
          "internalType": "uint256",
          "name": "_productId",
          "type": "uint256"
        },
        {
          "internalType": "string",
          "name": "_contentCID",
          "type": "string"
        },
        {
          "internalType": "uint256",
          "name": "_price",
          "type": "uint256"
        },
        {
          "internalType": "uint256",
          "name": "_stock",
          "type": "uint256"
        },
        {
          "internalType": "bool",
          "name": "_isAvailable",
          "type": "bool"
        }
      ],
      "name": "updateProduct",
      "outputs": [],
      "stateMutability": "nonpayable",
      "type": "function"
    },
    {
      "inputs": [
        {
          "internalType": "uint256",
          "name": "_shopId",
          "type": "uint256"
        },
        {
          "internalType": "string",
          "name": "_detailsCId",
          "type": "string"
        }
      ],
      "name": "updateShopDetails",
      "outputs": [],
      "stateMutability": "nonpayable",
      "type": "function"
    }
  ],
  "bytecode": "0x6080604052600060045560006005553480156200001b57600080fd5b50604051620057b4380380620057b4833981810160405281019062000041919062000185565b336000806101000a81548173ffffffffffffffffffffffffffffffffffffffff021916908373ffffffffffffffffffffffffffffffffffffffff16021790555081600160006101000a81548173ffffffffffffffffffffffffffffffffffffffff021916908373ffffffffffffffffffffffffffffffffffffffff16021790555080600260006101000a81548173ffffffffffffffffffffffffffffffffffffffff021916908373ffffffffffffffffffffffffffffffffffffffff160217905550600260009054906101000a900473ffffffffffffffffffffffffffffffffffffffff16600760006101000a81548173ffffffffffffffffffffffffffffffffffffffff021916908373ffffffffffffffffffffffffffffffffffffffff16021790555050506200021f565b6000815190506200017f8162000205565b92915050565b600080604083850312156200019f576200019e62000200565b5b6000620001af858286016200016e565b9250506020620001c2858286016200016e565b9150509250929050565b6000620001d982620001e0565b9050919050565b600073ffffffffffffffffffffffffffffffffffffffff82169050919050565b600080fd5b6200021081620001cc565b81146200021c57600080fd5b50565b615585806200022f6000396000f3fe6080604052600436106101b75760003560e01c8063892c45f9116100ec578063ba48cefc1161008a578063db7a9bc311610064578063db7a9bc314610684578063debad27f146106ad578063e51e83c1146106ea578063ff87d94f14610715576101b7565b8063ba48cefc14610602578063d2c351b41461062b578063db66fa7914610668576101b7565b8063a056631b116100c6578063a056631b1461050e578063a0e811181461054b578063a1132be214610588578063b9d3c0dd146105c5576101b7565b8063892c45f91461046b57806391a68069146104a85780639d268e89146104d1576101b7565b80635c40d2fe1161015957806371f2f8371161013357806371f2f837146103ba578063783804d9146103e957806380e541b21461042657806385fa74bc1461044f576101b7565b80635c40d2fe1461031757806366d9e1a814610354578063713aca741461037d576101b7565b806330f9caa21161019557806330f9caa21461024b57806347c421b51461028857806347fcdbd6146102b15780635bc358f4146102ee576101b7565b80630328945b146101bc57806310d480ba146101e5578063188a7cf11461020e575b600080fd5b3480156101c857600080fd5b506101e360048036038101906101de9190613e9c565b610740565b005b3480156101f157600080fd5b5061020c60048036038101906102079190613ca0565b610924565b005b34801561021a57600080fd5b5061023560048036038101906102309190613ad5565b6109bc565b6040516102429190614b70565b60405180910390f35b34801561025757600080fd5b50610272600480360381019061026d9190613ad5565b6109e4565b60405161027f9190614b70565b60405180910390f35b34801561029457600080fd5b506102af60048036038101906102aa9190613915565b610a12565b005b3480156102bd57600080fd5b506102d860048036038101906102d39190613ca0565b610ae4565b6040516102e59190614974565b60405180910390f35b3480156102fa57600080fd5b5061031560048036038101906103109190613ca0565b610bae565b005b34801561032357600080fd5b5061033e60048036038101906103399190613e09565b610c46565b60405161034b9190614b2c565b60405180910390f35b34801561036057600080fd5b5061037b60048036038101906103769190613dad565b610d22565b005b34801561038957600080fd5b506103a4600480360381019061039f9190613ca0565b610fb9565b6040516103b191906147d7565b60405180910390f35b3480156103c657600080fd5b506103cf610ff8565b6040516103e09594939291906147f2565b60405180910390f35b3480156103f557600080fd5b50610410600480360381019061040b9190613ca0565b61107f565b60405161041d9190614930565b60405180910390f35b34801561043257600080fd5b5061044d60048036038101906104489190613e49565b611149565b005b61046960048036038101906104649190613e09565b611398565b005b34801561047757600080fd5b50610492600480360381019061048d9190613ca0565b6115e4565b60405161049f9190614b70565b60405180910390f35b3480156104b457600080fd5b506104cf60048036038101906104ca9190613cfa565b6116a9565b005b3480156104dd57600080fd5b506104f860048036038101906104f39190613915565b611989565b60405161050591906149b1565b60405180910390f35b34801561051a57600080fd5b5061053560048036038101906105309190613915565b611a29565b6040516105429190614b70565b60405180910390f35b34801561055757600080fd5b50610572600480360381019061056d9190613ca0565b611a41565b60405161057f9190614b70565b60405180910390f35b34801561059457600080fd5b506105af60048036038101906105aa9190613ad5565b611a59565b6040516105bc9190614996565b60405180910390f35b3480156105d157600080fd5b506105ec60048036038101906105e79190613ca0565b611a8f565b6040516105f99190614b4e565b60405180910390f35b34801561060e57600080fd5b5061062960048036038101906106249190613dad565b611b5f565b005b34801561063757600080fd5b50610652600480360381019061064d9190613e09565b611d37565b60405161065f9190614b0a565b60405180910390f35b610682600480360381019061067d91906139b8565b611e13565b005b34801561069057600080fd5b506106ab60048036038101906106a69190613b1e565b612017565b005b3480156106b957600080fd5b506106d460048036038101906106cf9190613ca0565b6122f4565b6040516106e19190614952565b60405180910390f35b3480156106f657600080fd5b506106ff6123be565b60405161070c9190614b70565b60405180910390f35b34801561072157600080fd5b5061072a6123cb565b60405161073791906147d7565b60405180910390f35b8560038181548110610755576107546151fc565b5b9060005260206000200160009054906101000a900473ffffffffffffffffffffffffffffffffffffffff1673ffffffffffffffffffffffffffffffffffffffff1663893d20e86040518163ffffffff1660e01b815260040160206040518083038186803b1580156107c557600080fd5b505afa1580156107d9573d6000803e3d6000fd5b505050506040513d601f19601f820116820180604052508101906107fd9190613942565b73ffffffffffffffffffffffffffffffffffffffff163373ffffffffffffffffffffffffffffffffffffffff161461086a576040517f08c379a000000000000000000000000000000000000000000000000000000000815260040161086190614aaa565b60405180910390fd5b6003878154811061087e5761087d6151fc565b5b9060005260206000200160009054906101000a900473ffffffffffffffffffffffffffffffffffffffff1673ffffffffffffffffffffffffffffffffffffffff16631d9990ed87878787876040518663ffffffff1660e01b81526004016108e9959493929190614be4565b600060405180830381600087803b15801561090357600080fd5b505af1158015610917573d6000803e3d6000fd5b5050505050505050505050565b60008054906101000a900473ffffffffffffffffffffffffffffffffffffffff1673ffffffffffffffffffffffffffffffffffffffff163373ffffffffffffffffffffffffffffffffffffffff16146109b2576040517f08c379a00000000000000000000000000000000000000000000000000000000081526004016109a990614aca565b60405180910390fd5b8060058190555050565b6000600a826040516109ce91906147c0565b9081526020016040518091039020549050919050565b600a818051602081018201805184825260208301602085012081835280955050505050506000915090505481565b60008054906101000a900473ffffffffffffffffffffffffffffffffffffffff1673ffffffffffffffffffffffffffffffffffffffff163373ffffffffffffffffffffffffffffffffffffffff1614610aa0576040517f08c379a0000000000000000000000000000000000000000000000000000000008152600401610a9790614aca565b60405180910390fd5b80600160006101000a81548173ffffffffffffffffffffffffffffffffffffffff021916908373ffffffffffffffffffffffffffffffffffffffff16021790555050565b606060038281548110610afa57610af96151fc565b5b9060005260206000200160009054906101000a900473ffffffffffffffffffffffffffffffffffffffff1673ffffffffffffffffffffffffffffffffffffffff1663992f2bad6040518163ffffffff1660e01b815260040160006040518083038186803b158015610b6a57600080fd5b505afa158015610b7e573d6000803e3d6000fd5b505050506040513d6000823e3d601f19601f82011682018060405250810190610ba79190613a8c565b9050919050565b60008054906101000a900473ffffffffffffffffffffffffffffffffffffffff1673ffffffffffffffffffffffffffffffffffffffff163373ffffffffffffffffffffffffffffffffffffffff1614610c3c576040517f08c379a0000000000000000000000000000000000000000000000000000000008152600401610c3390614aca565b60405180910390fd5b8060048190555050565b610c4e612c59565b60038381548110610c6257610c616151fc565b5b9060005260206000200160009054906101000a900473ffffffffffffffffffffffffffffffffffffffff1673ffffffffffffffffffffffffffffffffffffffff1663d8f6d596836040518263ffffffff1660e01b8152600401610cc59190614b70565b60006040518083038186803b158015610cdd57600080fd5b505afa158015610cf1573d6000803e3d6000fd5b505050506040513d6000823e3d601f19601f82011682018060405250810190610d1a9190613c0e565b905092915050565b600160009054906101000a900473ffffffffffffffffffffffffffffffffffffffff1673ffffffffffffffffffffffffffffffffffffffff163373ffffffffffffffffffffffffffffffffffffffff1614610db2576040517f08c379a0000000000000000000000000000000000000000000000000000000008152600401610da990614a8a565b60405180910390fd5b6003600860008481526020019081526020016000206001015481548110610ddc57610ddb6151fc565b5b9060005260206000200160009054906101000a900473ffffffffffffffffffffffffffffffffffffffff1673ffffffffffffffffffffffffffffffffffffffff1663272e21d56008600085815260200190815260200160002060020154836040518363ffffffff1660e01b8152600401610e57929190614bb4565b600060405180830381600087803b158015610e7157600080fd5b505af1158015610e85573d6000803e3d6000fd5b5050505060066001600680549050610e9d9190614f6f565b81548110610eae57610ead6151fc565b5b90600052602060002001546006600960008581526020019081526020016000205481548110610ee057610edf6151fc565b5b906000526020600020018190555060096000838152602001908152602001600020546009600060066001600680549050610f1a9190614f6f565b81548110610f2b57610f2a6151fc565b5b90600052602060002001548152602001908152602001600020819055506006805480610f5a57610f596151cd565b5b600190038181906000526020600020016000905590556009600083815260200190815260200160002060009055600860008381526020019081526020016000206000808201600090556001820160009055600282016000905550505050565b60038181548110610fc957600080fd5b906000526020600020016000915054906101000a900473ffffffffffffffffffffffffffffffffffffffff1681565b60008060008060008060009054906101000a900473ffffffffffffffffffffffffffffffffffffffff16600160009054906101000a900473ffffffffffffffffffffffffffffffffffffffff16600260009054906101000a900473ffffffffffffffffffffffffffffffffffffffff16600454600554945094509450945094509091929394565b606060038281548110611095576110946151fc565b5b9060005260206000200160009054906101000a900473ffffffffffffffffffffffffffffffffffffffff1673ffffffffffffffffffffffffffffffffffffffff1663913b722c6040518163ffffffff1660e01b815260040160006040518083038186803b15801561110557600080fd5b505afa158015611119573d6000803e3d6000fd5b505050506040513d6000823e3d601f19601f82011682018060405250810190611142919061396f565b9050919050565b8282600060038381548110611161576111606151fc565b5b9060005260206000200160009054906101000a900473ffffffffffffffffffffffffffffffffffffffff1673ffffffffffffffffffffffffffffffffffffffff1663d8f6d596836040518263ffffffff1660e01b81526004016111c49190614b70565b60006040518083038186803b1580156111dc57600080fd5b505afa1580156111f0573d6000803e3d6000fd5b505050506040513d6000823e3d601f19601f820116820180604052508101906112199190613c0e565b9050806000015173ffffffffffffffffffffffffffffffffffffffff163373ffffffffffffffffffffffffffffffffffffffff161461128d576040517f08c379a000000000000000000000000000000000000000000000000000000000815260040161128490614aea565b60405180910390fd5b600386815481106112a1576112a06151fc565b5b9060005260206000200160009054906101000a900473ffffffffffffffffffffffffffffffffffffffff1673ffffffffffffffffffffffffffffffffffffffff1663cf270c8986866040518363ffffffff1660e01b8152600401611306929190614b8b565b600060405180830381600087803b15801561132057600080fd5b505af1158015611334573d6000803e3d6000fd5b50505050600454600c60003373ffffffffffffffffffffffffffffffffffffffff1673ffffffffffffffffffffffffffffffffffffffff16815260200190815260200160002060008282546113899190614f19565b92505081905550505050505050565b81816000600383815481106113b0576113af6151fc565b5b9060005260206000200160009054906101000a900473ffffffffffffffffffffffffffffffffffffffff1673ffffffffffffffffffffffffffffffffffffffff1663d8f6d596836040518263ffffffff1660e01b81526004016114139190614b70565b60006040518083038186803b15801561142b57600080fd5b505afa15801561143f573d6000803e3d6000fd5b505050506040513d6000823e3d601f19601f820116820180604052508101906114689190613c0e565b9050806000015173ffffffffffffffffffffffffffffffffffffffff163373ffffffffffffffffffffffffffffffffffffffff16146114dc576040517f08c379a00000000000000000000000000000000000000000000000000000000081526004016114d390614aea565b60405180910390fd5b600454600c60003373ffffffffffffffffffffffffffffffffffffffff1673ffffffffffffffffffffffffffffffffffffffff168152602001908152602001600020600082825461152d9190614f19565b9250508190555060038581548110611548576115476151fc565b5b9060005260206000200160009054906101000a900473ffffffffffffffffffffffffffffffffffffffff1673ffffffffffffffffffffffffffffffffffffffff1663d2f0be99856040518263ffffffff1660e01b81526004016115ab9190614b70565b600060405180830381600087803b1580156115c557600080fd5b505af11580156115d9573d6000803e3d6000fd5b505050505050505050565b6000600382815481106115fa576115f96151fc565b5b9060005260206000200160009054906101000a900473ffffffffffffffffffffffffffffffffffffffff1673ffffffffffffffffffffffffffffffffffffffff16635786fd406040518163ffffffff1660e01b815260040160206040518083038186803b15801561166a57600080fd5b505afa15801561167e573d6000803e3d6000fd5b505050506040513d601f19601f820116820180604052508101906116a29190613ccd565b9050919050565b84600381815481106116be576116bd6151fc565b5b9060005260206000200160009054906101000a900473ffffffffffffffffffffffffffffffffffffffff1673ffffffffffffffffffffffffffffffffffffffff1663893d20e86040518163ffffffff1660e01b815260040160206040518083038186803b15801561172e57600080fd5b505afa158015611742573d6000803e3d6000fd5b505050506040513d601f19601f820116820180604052508101906117669190613942565b73ffffffffffffffffffffffffffffffffffffffff163373ffffffffffffffffffffffffffffffffffffffff16146117d3576040517f08c379a00000000000000000000000000000000000000000000000000000000081526004016117ca90614aaa565b60405180910390fd5b600386815481106117e7576117e66151fc565b5b9060005260206000200160009054906101000a900473ffffffffffffffffffffffffffffffffffffffff1673ffffffffffffffffffffffffffffffffffffffff1663a9d657a8868686866040518563ffffffff1660e01b815260040161185094939291906148dd565b600060405180830381600087803b15801561186a57600080fd5b505af115801561187e573d6000803e3d6000fd5b50505050857f2a60815e9d2622a909b3c2b731fa879a529c93b5fecdb1cfea183695707572cc6001600389815481106118ba576118b96151fc565b5b9060005260206000200160009054906101000a900473ffffffffffffffffffffffffffffffffffffffff1673ffffffffffffffffffffffffffffffffffffffff16635786fd406040518163ffffffff1660e01b815260040160206040518083038186803b15801561192a57600080fd5b505afa15801561193e573d6000803e3d6000fd5b505050506040513d601f19601f820116820180604052508101906119629190613ccd565b61196c9190614f6f565b6040516119799190614b70565b60405180910390a2505050505050565b600d60205280600052604060002060009150905080546119a890615094565b80601f01602080910402602001604051908101604052809291908181526020018280546119d490615094565b8015611a215780601f106119f657610100808354040283529160200191611a21565b820191906000526020600020905b815481529060010190602001808311611a0457829003601f168201915b505050505081565b600c6020528060005260406000206000915090505481565b60096020528060005260406000206000915090505481565b600b818051602081018201805184825260208301602085012081835280955050505050506000915054906101000a900460ff1681565b611a97612cd8565b60038281548110611aab57611aaa6151fc565b5b9060005260206000200160009054906101000a900473ffffffffffffffffffffffffffffffffffffffff1673ffffffffffffffffffffffffffffffffffffffff1663c1d2b0bf6040518163ffffffff1660e01b815260040160006040518083038186803b158015611b1b57600080fd5b505afa158015611b2f573d6000803e3d6000fd5b505050506040513d6000823e3d601f19601f82011682018060405250810190611b589190613c57565b9050919050565b8160038181548110611b7457611b736151fc565b5b9060005260206000200160009054906101000a900473ffffffffffffffffffffffffffffffffffffffff1673ffffffffffffffffffffffffffffffffffffffff1663893d20e86040518163ffffffff1660e01b815260040160206040518083038186803b158015611be457600080fd5b505afa158015611bf8573d6000803e3d6000fd5b505050506040513d601f19601f82011682018060405250810190611c1c9190613942565b73ffffffffffffffffffffffffffffffffffffffff163373ffffffffffffffffffffffffffffffffffffffff1614611c89576040517f08c379a0000000000000000000000000000000000000000000000000000000008152600401611c8090614aaa565b60405180910390fd5b60038381548110611c9d57611c9c6151fc565b5b9060005260206000200160009054906101000a900473ffffffffffffffffffffffffffffffffffffffff1673ffffffffffffffffffffffffffffffffffffffff1663299d3614836040518263ffffffff1660e01b8152600401611d0091906149b1565b600060405180830381600087803b158015611d1a57600080fd5b505af1158015611d2e573d6000803e3d6000fd5b50505050505050565b611d3f612d3a565b60038381548110611d5357611d526151fc565b5b9060005260206000200160009054906101000a900473ffffffffffffffffffffffffffffffffffffffff1673ffffffffffffffffffffffffffffffffffffffff1663b9db15b4836040518263ffffffff1660e01b8152600401611db69190614b70565b60006040518083038186803b158015611dce57600080fd5b505afa158015611de2573d6000803e3d6000fd5b505050506040513d6000823e3d601f19601f82011682018060405250810190611e0b9190613bc5565b905092915050565b600034905081600c60003373ffffffffffffffffffffffffffffffffffffffff1673ffffffffffffffffffffffffffffffffffffffff168152602001908152602001600020541015611e9a576040517f08c379a0000000000000000000000000000000000000000000000000000000008152600401611e9190614a2a565b60405180910390fd5b81600c60003373ffffffffffffffffffffffffffffffffffffffff1673ffffffffffffffffffffffffffffffffffffffff1681526020019081526020016000206000828254611ee99190614f6f565b925050819055508181611efc9190614f19565b905060005b845181101561201057848181518110611f1d57611f1c6151fc565b5b602002602001015160400151821015611f6b576040517f08c379a0000000000000000000000000000000000000000000000000000000008152600401611f6290614a6a565b60405180910390fd5b848181518110611f7e57611f7d6151fc565b5b60200260200101516040015182611f959190614f6f565b9150611ffd858281518110611fad57611fac6151fc565b5b602002602001015160000151868381518110611fcc57611fcb6151fc565b5b60200260200101516020015186888581518110611fec57611feb6151fc565b5b6020026020010151604001516123f1565b8080612008906150f7565b915050611f01565b5050505050565b600b8360405161202791906147c0565b908152602001604051809103902060009054906101000a900460ff1615612083576040517f08c379a000000000000000000000000000000000000000000000000000000000815260040161207a90614a0a565b60405180910390fd5b600760009054906101000a900473ffffffffffffffffffffffffffffffffffffffff1673ffffffffffffffffffffffffffffffffffffffff16639472760d338585856040518563ffffffff1660e01b81526004016120e49493929190614845565b600060405180830381600087803b1580156120fe57600080fd5b505af1158015612112573d6000803e3d6000fd5b505050506003600760009054906101000a900473ffffffffffffffffffffffffffffffffffffffff1673ffffffffffffffffffffffffffffffffffffffff16633f7b27d56040518163ffffffff1660e01b815260040160206040518083038186803b15801561218057600080fd5b505afa158015612194573d6000803e3d6000fd5b505050506040513d601f19601f820116820180604052508101906121b89190613942565b9080600181540180825580915050600190039060005260206000200160009091909190916101000a81548173ffffffffffffffffffffffffffffffffffffffff021916908373ffffffffffffffffffffffffffffffffffffffff160217905550600160038054905061222a9190614f6f565b600a8460405161223a91906147c0565b9081526020016040518091039020819055506001600b8460405161225e91906147c0565b908152602001604051809103902060006101000a81548160ff0219169083151502179055503373ffffffffffffffffffffffffffffffffffffffff167f9f72cef855334558e5b6a87934fe666cced3893f8f256a17a302209299490951600a856040516122cb91906147c0565b9081526020016040518091039020546040516122e79190614b70565b60405180910390a2505050565b60606003828154811061230a576123096151fc565b5b9060005260206000200160009054906101000a900473ffffffffffffffffffffffffffffffffffffffff1673ffffffffffffffffffffffffffffffffffffffff1663c29b2f206040518163ffffffff1660e01b815260040160006040518083038186803b15801561237a57600080fd5b505afa15801561238e573d6000803e3d6000fd5b505050506040513d6000823e3d601f19601f820116820180604052508101906123b79190613a43565b9050919050565b6000600380549050905090565b600260009054906101000a900473ffffffffffffffffffffffffffffffffffffffff1681565b600082511415612555576000600d60003373ffffffffffffffffffffffffffffffffffffffff1673ffffffffffffffffffffffffffffffffffffffff168152602001908152602001600020805461244790615094565b9050141561248a576040517f08c379a000000000000000000000000000000000000000000000000000000000815260040161248190614a4a565b60405180910390fd5b600d60003373ffffffffffffffffffffffffffffffffffffffff1673ffffffffffffffffffffffffffffffffffffffff16815260200190815260200160002080546124d490615094565b80601f016020809104026020016040519081016040528092919081815260200182805461250090615094565b801561254d5780601f106125225761010080835404028352916020019161254d565b820191906000526020600020905b81548152906001019060200180831161253057829003601f168201915b505050505091505b60038481548110612569576125686151fc565b5b9060005260206000200160009054906101000a900473ffffffffffffffffffffffffffffffffffffffff1673ffffffffffffffffffffffffffffffffffffffff16635bf500b7600554600454846125c09190614f6f565b6125ca9190614f6f565b3386866040518563ffffffff1660e01b81526004016125eb9392919061489f565b6000604051808303818588803b15801561260457600080fd5b505af1158015612618573d6000803e3d6000fd5b5050505050600060038581548110612633576126326151fc565b5b9060005260206000200160009054906101000a900473ffffffffffffffffffffffffffffffffffffffff1673ffffffffffffffffffffffffffffffffffffffff1663d8f6d59660016003888154811061268f5761268e6151fc565b5b9060005260206000200160009054906101000a900473ffffffffffffffffffffffffffffffffffffffff1673ffffffffffffffffffffffffffffffffffffffff1663dd8027db6040518163ffffffff1660e01b815260040160206040518083038186803b1580156126ff57600080fd5b505afa158015612713573d6000803e3d6000fd5b505050506040513d601f19601f820116820180604052508101906127379190613ccd565b6127419190614f6f565b6040518263ffffffff1660e01b815260040161275d9190614b70565b60006040518083038186803b15801561277557600080fd5b505afa158015612789573d6000803e3d6000fd5b505050506040513d6000823e3d601f19601f820116820180604052508101906127b29190613c0e565b90506000600386815481106127ca576127c96151fc565b5b9060005260206000200160009054906101000a900473ffffffffffffffffffffffffffffffffffffffff1673ffffffffffffffffffffffffffffffffffffffff1663b9db15b4866040518263ffffffff1660e01b815260040161282d9190614b70565b60006040518083038186803b15801561284557600080fd5b505afa158015612859573d6000803e3d6000fd5b505050506040513d6000823e3d601f19601f820116820180604052508101906128829190613bc5565b9050600160009054906101000a900473ffffffffffffffffffffffffffffffffffffffff1673ffffffffffffffffffffffffffffffffffffffff1663b9da4af88260200151866040518363ffffffff1660e01b81526004016128e59291906149d3565b600060405180830381600087803b1580156128ff57600080fd5b505af1158015612913573d6000803e3d6000fd5b50505050600060018060009054906101000a900473ffffffffffffffffffffffffffffffffffffffff1673ffffffffffffffffffffffffffffffffffffffff1663fbfa4b7f6040518163ffffffff1660e01b815260040160206040518083038186803b15801561298257600080fd5b505afa158015612996573d6000803e3d6000fd5b505050506040513d601f19601f820116820180604052508101906129ba9190613ccd565b6129c49190614f6f565b90506040518060600160405280828152602001888152602001600160038a815481106129f3576129f26151fc565b5b9060005260206000200160009054906101000a900473ffffffffffffffffffffffffffffffffffffffff1673ffffffffffffffffffffffffffffffffffffffff1663dd8027db6040518163ffffffff1660e01b815260040160206040518083038186803b158015612a6357600080fd5b505afa158015612a77573d6000803e3d6000fd5b505050506040513d601f19601f82011682018060405250810190612a9b9190613ccd565b612aa59190614f6f565b8152506008600083815260200190815260200160002060008201518160000155602082015181600101556040820151816002015590505060068190806001815401808255809150506001900390600052602060002001600090919091909150556001600680549050612b179190614f6f565b600960008381526020019081526020016000208190555082604001513373ffffffffffffffffffffffffffffffffffffffff16887f5cb9ba43d895b2b52a05833fb1e6a565cf3e245d62332664ecede22586f90184856000015151600160038d81548110612b8857612b876151fc565b5b9060005260206000200160009054906101000a900473ffffffffffffffffffffffffffffffffffffffff1673ffffffffffffffffffffffffffffffffffffffff1663dd8027db6040518163ffffffff1660e01b815260040160206040518083038186803b158015612bf857600080fd5b505afa158015612c0c573d6000803e3d6000fd5b505050506040513d601f19601f82011682018060405250810190612c309190613ccd565b612c3a9190614f6f565b604051612c48929190614c3e565b60405180910390a450505050505050565b604051806101000160405280600073ffffffffffffffffffffffffffffffffffffffff168152602001606081526020016000815260200160008152602001600081526020016060815260200160006004811115612cb957612cb861516f565b5b815260200160006003811115612cd257612cd161516f565b5b81525090565b6040518060c00160405280600073ffffffffffffffffffffffffffffffffffffffff168152602001600073ffffffffffffffffffffffffffffffffffffffff168152602001606081526020016060815260200160008152602001600081525090565b60405180610120016040528060608152602001606081526020016000815260200160008152602001600081526020016000815260200160008152602001612d7f612d8e565b81526020016000151581525090565b6040518060200160405280612da1612da7565b81525090565b6040518060800160405280600490602082028036833780820191505090505090565b6000612ddc612dd784614c8c565b614c67565b90508083825260208201905082856020860282011115612dff57612dfe615269565b5b60005b85811015612e4d57813567ffffffffffffffff811115612e2557612e2461525a565b5b808601612e32898261341e565b85526020850194506020840193505050600181019050612e02565b5050509392505050565b6000612e6a612e6584614c8c565b614c67565b90508083825260208201905082856020860282011115612e8d57612e8c615269565b5b60005b85811015612edb57815167ffffffffffffffff811115612eb357612eb261525a565b5b808601612ec0898261344c565b85526020850194506020840193505050600181019050612e90565b5050509392505050565b6000612ef8612ef384614cb8565b614c67565b90508083825260208201905082856040860282011115612f1b57612f1a615269565b5b60005b85811015612f4b5781612f31888261347a565b845260208401935060408301925050600181019050612f1e565b5050509392505050565b6000612f68612f6384614cb8565b614c67565b90508083825260208201905082856040860282011115612f8b57612f8a615269565b5b60005b85811015612fbb5781612fa188826134ca565b845260208401935060408301925050600181019050612f8e565b5050509392505050565b6000612fd8612fd384614ce4565b614c67565b90508083825260208201905082856060860282011115612ffb57612ffa615269565b5b60005b8581101561302b5781613011888261351a565b845260208401935060608301925050600181019050612ffe565b5050509392505050565b600061304861304384614d10565b614c67565b9050808382526020820190508285602086028201111561306b5761306a615269565b5b60005b858110156130b957815167ffffffffffffffff8111156130915761309061525a565b5b80860161309e898261357e565b8552602085019450602084019350505060018101905061306e565b5050509392505050565b60006130d66130d184614d3c565b614c67565b905080838252602082019050828560208602820111156130f9576130f8615269565b5b60005b85811015613129578161310f88826138c1565b8452602084019350602083019250506001810190506130fc565b5050509392505050565b600061314661314184614d68565b614c67565b905080828560208602820111156131605761315f615269565b5b60005b85811015613190578161317688826138d6565b845260208401935060208301925050600181019050613163565b5050509392505050565b60006131ad6131a884614d8e565b614c67565b9050828152602081018484840111156131c9576131c861526e565b5b6131d4848285615052565b509392505050565b60006131ef6131ea84614d8e565b614c67565b90508281526020810184848401111561320b5761320a61526e565b5b613216848285615061565b509392505050565b60008135905061322d816154bc565b92915050565b600081519050613242816154bc565b92915050565b600082601f83011261325d5761325c61525a565b5b813561326d848260208601612dc9565b91505092915050565b600082601f83011261328b5761328a61525a565b5b815161329b848260208601612e57565b91505092915050565b600082601f8301126132b9576132b861525a565b5b81356132c9848260208601612ee5565b91505092915050565b600082601f8301126132e7576132e661525a565b5b81516132f7848260208601612f55565b91505092915050565b600082601f8301126133155761331461525a565b5b8135613325848260208601612fc5565b91505092915050565b600082601f8301126133435761334261525a565b5b8151613353848260208601613035565b91505092915050565b600082601f8301126133715761337061525a565b5b81516133818482602086016130c3565b91505092915050565b600082601f83011261339f5761339e61525a565b5b60046133ac848285613133565b91505092915050565b6000813590506133c4816154d3565b92915050565b6000815190506133d9816154d3565b92915050565b6000813590506133ee816154ea565b92915050565b600081519050613403816154ea565b92915050565b600081519050613418816154fa565b92915050565b600082601f8301126134335761343261525a565b5b813561344384826020860161319a565b91505092915050565b600082601f8301126134615761346061525a565b5b81516134718482602086016131dc565b91505092915050565b6000604082840312156134905761348f61525f565b5b61349a6040614c67565b905060006134aa8482850161321e565b60008301525060206134be848285016138eb565b60208301525092915050565b6000604082840312156134e0576134df61525f565b5b6134ea6040614c67565b905060006134fa84828501613233565b600083015250602061350e84828501613900565b60208301525092915050565b6000606082840312156135305761352f61525f565b5b61353a6060614c67565b9050600061354a848285016138ac565b600083015250602061355e848285016138ac565b6020830152506040613572848285016138ac565b60408301525092915050565b600061018082840312156135955761359461525f565b5b6135a0610120614c67565b9050600082015167ffffffffffffffff8111156135c0576135bf615264565b5b6135cc84828501613276565b600083015250602082015167ffffffffffffffff8111156135f0576135ef615264565b5b6135fc8482850161344c565b6020830152506040613610848285016138c1565b6040830152506060613624848285016138c1565b6060830152506080613638848285016138c1565b60808301525060a061364c848285016138c1565b60a08301525060c0613660848285016138c1565b60c08301525060e061367484828501613696565b60e083015250610160613689848285016133ca565b6101008301525092915050565b6000608082840312156136ac576136ab61525f565b5b6136b66020614c67565b905060006136c68482850161338a565b60008301525092915050565b600061010082840312156136e9576136e861525f565b5b6136f4610100614c67565b9050600061370484828501613233565b600083015250602082015167ffffffffffffffff81111561372857613727615264565b5b6137348482850161344c565b6020830152506040613748848285016138c1565b604083015250606061375c848285016138c1565b6060830152506080613770848285016138c1565b60808301525060a082015167ffffffffffffffff81111561379457613793615264565b5b6137a08482850161344c565b60a08301525060c06137b4848285016133f4565b60c08301525060e06137c884828501613409565b60e08301525092915050565b600060c082840312156137ea576137e961525f565b5b6137f460c0614c67565b9050600061380484828501613233565b600083015250602061381884828501613233565b602083015250604082015167ffffffffffffffff81111561383c5761383b615264565b5b6138488482850161344c565b604083015250606082015167ffffffffffffffff81111561386c5761386b615264565b5b6138788482850161344c565b606083015250608061388c848285016138c1565b60808301525060a06138a0848285016138c1565b60a08301525092915050565b6000813590506138bb8161550a565b92915050565b6000815190506138d08161550a565b92915050565b6000815190506138e581615521565b92915050565b6000813590506138fa81615538565b92915050565b60008151905061390f81615538565b92915050565b60006020828403121561392b5761392a615278565b5b60006139398482850161321e565b91505092915050565b60006020828403121561395857613957615278565b5b600061396684828501613233565b91505092915050565b60006020828403121561398557613984615278565b5b600082015167ffffffffffffffff8111156139a3576139a2615273565b5b6139af848285016132d2565b91505092915050565b6000806000606084860312156139d1576139d0615278565b5b600084013567ffffffffffffffff8111156139ef576139ee615273565b5b6139fb86828701613300565b935050602084013567ffffffffffffffff811115613a1c57613a1b615273565b5b613a288682870161341e565b9250506040613a39868287016138ac565b9150509250925092565b600060208284031215613a5957613a58615278565b5b600082015167ffffffffffffffff811115613a7757613a76615273565b5b613a838482850161332e565b91505092915050565b600060208284031215613aa257613aa1615278565b5b600082015167ffffffffffffffff811115613ac057613abf615273565b5b613acc8482850161335c565b91505092915050565b600060208284031215613aeb57613aea615278565b5b600082013567ffffffffffffffff811115613b0957613b08615273565b5b613b158482850161341e565b91505092915050565b600080600060608486031215613b3757613b36615278565b5b600084013567ffffffffffffffff811115613b5557613b54615273565b5b613b618682870161341e565b935050602084013567ffffffffffffffff811115613b8257613b81615273565b5b613b8e8682870161341e565b925050604084013567ffffffffffffffff811115613baf57613bae615273565b5b613bbb868287016132a4565b9150509250925092565b600060208284031215613bdb57613bda615278565b5b600082015167ffffffffffffffff811115613bf957613bf8615273565b5b613c058482850161357e565b91505092915050565b600060208284031215613c2457613c23615278565b5b600082015167ffffffffffffffff811115613c4257613c41615273565b5b613c4e848285016136d2565b91505092915050565b600060208284031215613c6d57613c6c615278565b5b600082015167ffffffffffffffff811115613c8b57613c8a615273565b5b613c97848285016137d4565b91505092915050565b600060208284031215613cb657613cb5615278565b5b6000613cc4848285016138ac565b91505092915050565b600060208284031215613ce357613ce2615278565b5b6000613cf1848285016138c1565b91505092915050565b600080600080600060a08688031215613d1657613d15615278565b5b6000613d24888289016138ac565b955050602086013567ffffffffffffffff811115613d4557613d44615273565b5b613d5188828901613248565b945050604086013567ffffffffffffffff811115613d7257613d71615273565b5b613d7e8882890161341e565b9350506060613d8f888289016138ac565b9250506080613da0888289016138ac565b9150509295509295909350565b60008060408385031215613dc457613dc3615278565b5b6000613dd2858286016138ac565b925050602083013567ffffffffffffffff811115613df357613df2615273565b5b613dff8582860161341e565b9150509250929050565b60008060408385031215613e2057613e1f615278565b5b6000613e2e858286016138ac565b9250506020613e3f858286016138ac565b9150509250929050565b600080600060608486031215613e6257613e61615278565b5b6000613e70868287016138ac565b9350506020613e81868287016138ac565b9250506040613e92868287016133df565b9150509250925092565b60008060008060008060c08789031215613eb957613eb8615278565b5b6000613ec789828a016138ac565b9650506020613ed889828a016138ac565b955050604087013567ffffffffffffffff811115613ef957613ef8615273565b5b613f0589828a0161341e565b9450506060613f1689828a016138ac565b9350506080613f2789828a016138ac565b92505060a0613f3889828a016133b5565b9150509295509295509295565b6000613f518383614290565b905092915050565b6000613f65838361444b565b60408301905092915050565b6000613f7d838361447a565b905092915050565b6000613f918383614775565b60208301905092915050565b6000613fa98383614793565b60208301905092915050565b613fbe81614fa3565b82525050565b613fcd81614fa3565b82525050565b6000613fde82614e09565b613fe88185614e8c565b935083602082028501613ffa85614dbf565b8060005b8581101561403657848403895281516140178582613f45565b945061402283614e4b565b925060208a01995050600181019050613ffe565b50829750879550505050505092915050565b600061405382614e09565b61405d8185614e9d565b93508360208202850161406f85614dbf565b8060005b858110156140ab578484038952815161408c8582613f45565b945061409783614e4b565b925060208a01995050600181019050614073565b50829750879550505050505092915050565b60006140c882614e14565b6140d28185614eae565b93506140dd83614dcf565b8060005b8381101561410e5781516140f58882613f59565b975061410083614e58565b9250506001810190506140e1565b5085935050505092915050565b600061412682614e1f565b6141308185614ebf565b93508360208202850161414285614ddf565b8060005b8581101561417e578484038952815161415f8582613f71565b945061416a83614e65565b925060208a01995050600181019050614146565b50829750879550505050505092915050565b600061419b82614e2a565b6141a58185614ed0565b93506141b083614def565b8060005b838110156141e15781516141c88882613f85565b97506141d383614e72565b9250506001810190506141b4565b5085935050505092915050565b6141f781614e35565b6142018184614ee1565b925061420c82614dff565b8060005b8381101561423d5781516142248782613f9d565b965061422f83614e7f565b925050600181019050614210565b505050505050565b61424e81614fb5565b82525050565b61425d81614fb5565b82525050565b61426c8161502e565b82525050565b61427b8161502e565b82525050565b61428a81615040565b82525050565b600061429b82614e40565b6142a58185614eec565b93506142b5818560208601615061565b6142be8161527d565b840191505092915050565b60006142d482614e40565b6142de8185614efd565b93506142ee818560208601615061565b6142f78161527d565b840191505092915050565b600061430d82614e40565b6143178185614f0e565b9350614327818560208601615061565b80840191505092915050565b6000614340601783614efd565b915061434b8261528e565b602082019050919050565b6000614363601283614efd565b915061436e826152b7565b602082019050919050565b6000614386602183614efd565b9150614391826152e0565b604082019050919050565b60006143a9601083614efd565b91506143b48261532f565b602082019050919050565b60006143cc602983614efd565b91506143d782615358565b604082019050919050565b60006143ef602683614efd565b91506143fa826153a7565b604082019050919050565b6000614412602183614efd565b915061441d826153f6565b604082019050919050565b6000614435602183614efd565b915061444082615445565b604082019050919050565b6040820160008201516144616000850182613fb5565b50602082015161447460208501826147a2565b50505050565b60006101808301600083015184820360008601526144988282613fd3565b915050602083015184820360208601526144b28282614290565b91505060408301516144c76040860182614775565b5060608301516144da6060860182614775565b5060808301516144ed6080860182614775565b5060a083015161450060a0860182614775565b5060c083015161451360c0860182614775565b5060e083015161452660e0860182614612565b5061010083015161453b610160860182614245565b508091505092915050565b60006101808301600083015184820360008601526145648282613fd3565b9150506020830151848203602086015261457e8282614290565b91505060408301516145936040860182614775565b5060608301516145a66060860182614775565b5060808301516145b96080860182614775565b5060a08301516145cc60a0860182614775565b5060c08301516145df60c0860182614775565b5060e08301516145f260e0860182614612565b50610100830151614607610160860182614245565b508091505092915050565b60808201600082015161462860008501826141ee565b50505050565b6000610100830160008301516146476000860182613fb5565b506020830151848203602086015261465f8282614290565b91505060408301516146746040860182614775565b5060608301516146876060860182614775565b50608083015161469a6080860182614775565b5060a083015184820360a08601526146b28282614290565b91505060c08301516146c760c0860182614263565b5060e08301516146da60e0860182614281565b508091505092915050565b600060c0830160008301516146fd6000860182613fb5565b5060208301516147106020860182613fb5565b50604083015184820360408601526147288282614290565b915050606083015184820360608601526147428282614290565b91505060808301516147576080860182614775565b5060a083015161476a60a0860182614775565b508091505092915050565b61477e81615007565b82525050565b61478d81615007565b82525050565b61479c81615011565b82525050565b6147ab81615021565b82525050565b6147ba81615021565b82525050565b60006147cc8284614302565b915081905092915050565b60006020820190506147ec6000830184613fc4565b92915050565b600060a0820190506148076000830188613fc4565b6148146020830187613fc4565b6148216040830186613fc4565b61482e6060830185614784565b61483b6080830184614784565b9695505050505050565b600060808201905061485a6000830187613fc4565b818103602083015261486c81866142c9565b9050818103604083015261488081856142c9565b9050818103606083015261489481846140bd565b905095945050505050565b60006060820190506148b46000830186613fc4565b6148c16020830185614784565b81810360408301526148d381846142c9565b9050949350505050565b600060808201905081810360008301526148f78187614048565b9050818103602083015261490b81866142c9565b905061491a6040830185614784565b6149276060830184614784565b95945050505050565b6000602082019050818103600083015261494a81846140bd565b905092915050565b6000602082019050818103600083015261496c818461411b565b905092915050565b6000602082019050818103600083015261498e8184614190565b905092915050565b60006020820190506149ab6000830184614254565b92915050565b600060208201905081810360008301526149cb81846142c9565b905092915050565b600060408201905081810360008301526149ed81856142c9565b90508181036020830152614a0181846142c9565b90509392505050565b60006020820190508181036000830152614a2381614333565b9050919050565b60006020820190508181036000830152614a4381614356565b9050919050565b60006020820190508181036000830152614a6381614379565b9050919050565b60006020820190508181036000830152614a838161439c565b9050919050565b60006020820190508181036000830152614aa3816143bf565b9050919050565b60006020820190508181036000830152614ac3816143e2565b9050919050565b60006020820190508181036000830152614ae381614405565b9050919050565b60006020820190508181036000830152614b0381614428565b9050919050565b60006020820190508181036000830152614b248184614546565b905092915050565b60006020820190508181036000830152614b46818461462e565b905092915050565b60006020820190508181036000830152614b6881846146e5565b905092915050565b6000602082019050614b856000830184614784565b92915050565b6000604082019050614ba06000830185614784565b614bad6020830184614272565b9392505050565b6000604082019050614bc96000830185614784565b8181036020830152614bdb81846142c9565b90509392505050565b600060a082019050614bf96000830188614784565b8181036020830152614c0b81876142c9565b9050614c1a6040830186614784565b614c276060830185614784565b614c346080830184614254565b9695505050505050565b6000604082019050614c5360008301856147b1565b614c606020830184614784565b9392505050565b6000614c71614c82565b9050614c7d82826150c6565b919050565b6000604051905090565b600067ffffffffffffffff821115614ca757614ca661522b565b5b602082029050602081019050919050565b600067ffffffffffffffff821115614cd357614cd261522b565b5b602082029050602081019050919050565b600067ffffffffffffffff821115614cff57614cfe61522b565b5b602082029050602081019050919050565b600067ffffffffffffffff821115614d2b57614d2a61522b565b5b602082029050602081019050919050565b600067ffffffffffffffff821115614d5757614d5661522b565b5b602082029050602081019050919050565b600067ffffffffffffffff821115614d8357614d8261522b565b5b602082029050919050565b600067ffffffffffffffff821115614da957614da861522b565b5b614db28261527d565b9050602081019050919050565b6000819050602082019050919050565b6000819050602082019050919050565b6000819050602082019050919050565b6000819050602082019050919050565b6000819050919050565b600081519050919050565b600081519050919050565b600081519050919050565b600081519050919050565b600060049050919050565b600081519050919050565b6000602082019050919050565b6000602082019050919050565b6000602082019050919050565b6000602082019050919050565b6000602082019050919050565b600082825260208201905092915050565b600082825260208201905092915050565b600082825260208201905092915050565b600082825260208201905092915050565b600082825260208201905092915050565b600081905092915050565b600082825260208201905092915050565b600082825260208201905092915050565b600081905092915050565b6000614f2482615007565b9150614f2f83615007565b9250827fffffffffffffffffffffffffffffffffffffffffffffffffffffffffffffffff03821115614f6457614f63615140565b5b828201905092915050565b6000614f7a82615007565b9150614f8583615007565b925082821015614f9857614f97615140565b5b828203905092915050565b6000614fae82614fe7565b9050919050565b60008115159050919050565b6000819050614fcf82615494565b919050565b6000819050614fe2826154a8565b919050565b600073ffffffffffffffffffffffffffffffffffffffff82169050919050565b6000819050919050565b600063ffffffff82169050919050565b600060ff82169050919050565b600061503982614fc1565b9050919050565b600061504b82614fd4565b9050919050565b82818337600083830152505050565b60005b8381101561507f578082015181840152602081019050615064565b8381111561508e576000848401525b50505050565b600060028204905060018216806150ac57607f821691505b602082108114156150c0576150bf61519e565b5b50919050565b6150cf8261527d565b810181811067ffffffffffffffff821117156150ee576150ed61522b565b5b80604052505050565b600061510282615007565b91507fffffffffffffffffffffffffffffffffffffffffffffffffffffffffffffffff82141561513557615134615140565b5b600182019050919050565b7f4e487b7100000000000000000000000000000000000000000000000000000000600052601160045260246000fd5b7f4e487b7100000000000000000000000000000000000000000000000000000000600052602160045260246000fd5b7f4e487b7100000000000000000000000000000000000000000000000000000000600052602260045260246000fd5b7f4e487b7100000000000000000000000000000000000000000000000000000000600052603160045260246000fd5b7f4e487b7100000000000000000000000000000000000000000000000000000000600052603260045260246000fd5b7f4e487b7100000000000000000000000000000000000000000000000000000000600052604160045260246000fd5b600080fd5b600080fd5b600080fd5b600080fd5b600080fd5b600080fd5b600080fd5b6000601f19601f8301169050919050565b7f53686f70206e616d6520616c72656164792074616b656e000000000000000000600082015250565b7f4e6f7420656e6f75676820637265646974730000000000000000000000000000600082015250565b7f4e6f207075626c6963206b657920666f756e6420666f7220746869732075736560008201527f7200000000000000000000000000000000000000000000000000000000000000602082015250565b7f4e6f7420656e6f7567682066756e647300000000000000000000000000000000600082015250565b7f4f6e6c79206f7261636c6520636c69656e742063616e2063616c6c207468652060008201527f66756e6374696f6e210000000000000000000000000000000000000000000000602082015250565b7f6f6e6c792073686f70206f776e65722063616e2063616c6c207468652066756e60008201527f6374696f6e210000000000000000000000000000000000000000000000000000602082015250565b7f4f6e6c79206f776e65722063616e2063616c6c207468652066756e6374696f6e60008201527f2100000000000000000000000000000000000000000000000000000000000000602082015250565b7f4f6e6c792062757965722063616e2063616c6c207468652066756e6374696f6e60008201527f2100000000000000000000000000000000000000000000000000000000000000602082015250565b600581106154a5576154a461516f565b5b50565b600481106154b9576154b861516f565b5b50565b6154c581614fa3565b81146154d057600080fd5b50565b6154dc81614fb5565b81146154e757600080fd5b50565b600581106154f757600080fd5b50565b6004811061550757600080fd5b50565b61551381615007565b811461551e57600080fd5b50565b61552a81615011565b811461553557600080fd5b50565b61554181615021565b811461554c57600080fd5b5056fea264697066735822122034f5d802aa00b8a8a7460511438866e72df3e098e0615be52dfbb05e6e79400564736f6c63430008070033",
  "linkReferences": {},
  "deployedLinkReferences": {}
}