{
  "_format": "hh-sol-artifact-1",
  "contractName": "Guild",
  "sourceName": "contracts/Guild.sol",
  "abi": [
    {
      "inputs": [
        {
          "internalType": "address",
          "name": "_oracleClient",
          "type": "address"
        },
        {
          "internalType": "address",
          "name": "_shopFactory",
          "type": "address"
        }
      ],
      "stateMutability": "nonpayable",
      "type": "constructor"
    },
    {
      "anonymous": false,
      "inputs": [
        {
          "indexed": true,
          "internalType": "uint256",
          "name": "shopId",
          "type": "uint256"
        },
        {
          "indexed": false,
          "internalType": "uint256",
          "name": "productId",
          "type": "uint256"
        }
      ],
      "name": "ProductCreated",
      "type": "event"
    },
    {
      "anonymous": false,
      "inputs": [
        {
          "indexed": true,
          "internalType": "uint256",
          "name": "shopId",
          "type": "uint256"
        },
        {
          "indexed": true,
          "internalType": "address",
          "name": "buyer",
          "type": "address"
        },
        {
          "indexed": true,
          "internalType": "uint256",
          "name": "productId",
          "type": "uint256"
        },
        {
          "indexed": false,
          "internalType": "uint8",
          "name": "contentVersion",
          "type": "uint8"
        },
        {
          "indexed": false,
          "internalType": "uint256",
          "name": "saleId",
          "type": "uint256"
        }
      ],
      "name": "RequestedSale",
      "type": "event"
    },
    {
      "anonymous": false,
      "inputs": [
        {
          "indexed": false,
          "internalType": "uint256",
          "name": "shopId",
          "type": "uint256"
        },
        {
          "indexed": true,
          "internalType": "address",
          "name": "owner",
          "type": "address"
        }
      ],
      "name": "ShopCreated",
      "type": "event"
    },
    {
      "inputs": [
        {
          "internalType": "uint256",
          "name": "_shopId",
          "type": "uint256"
        },
        {
          "internalType": "string[]",
          "name": "_contentCID",
          "type": "string[]"
        },
        {
          "internalType": "string",
          "name": "_lockedLicense",
          "type": "string"
        },
        {
          "internalType": "uint256",
          "name": "_price",
          "type": "uint256"
        },
        {
          "internalType": "uint256",
          "name": "_stock",
          "type": "uint256"
        }
      ],
      "name": "addProduct",
      "outputs": [],
      "stateMutability": "nonpayable",
      "type": "function"
    },
    {
      "inputs": [
        {
          "internalType": "uint256",
          "name": "_shopId",
          "type": "uint256"
        },
        {
          "internalType": "uint256",
          "name": "_saleId",
          "type": "uint256"
        },
        {
          "internalType": "enum IShop.RatingOptions",
          "name": "_rating",
          "type": "uint8"
        }
      ],
      "name": "addRating",
      "outputs": [],
      "stateMutability": "nonpayable",
      "type": "function"
    },
    {
      "inputs": [
        {
          "internalType": "address",
          "name": "",
          "type": "address"
        }
      ],
      "name": "buyerCredits",
      "outputs": [
        {
          "internalType": "uint256",
          "name": "",
          "type": "uint256"
        }
      ],
      "stateMutability": "view",
      "type": "function"
    },
    {
      "inputs": [
        {
          "internalType": "address",
          "name": "",
          "type": "address"
        }
      ],
      "name": "buyerPublicKeys",
      "outputs": [
        {
          "internalType": "string",
          "name": "",
          "type": "string"
        }
      ],
      "stateMutability": "view",
      "type": "function"
    },
    {
      "inputs": [
        {
          "internalType": "address",
          "name": "_oracle",
          "type": "address"
        }
      ],
      "name": "changeOracle",
      "outputs": [],
      "stateMutability": "nonpayable",
      "type": "function"
    },
    {
      "inputs": [
        {
          "components": [
            {
              "internalType": "uint256",
              "name": "shopId",
              "type": "uint256"
            },
            {
              "internalType": "uint256",
              "name": "productId",
              "type": "uint256"
            },
            {
              "internalType": "uint256",
              "name": "amount",
              "type": "uint256"
            }
          ],
          "internalType": "struct Guild.CartItem[]",
          "name": "_cartItems",
          "type": "tuple[]"
        },
        {
          "internalType": "string",
          "name": "_publicKey",
          "type": "string"
        },
        {
          "internalType": "uint256",
          "name": "_redeemCredits",
          "type": "uint256"
        }
      ],
      "name": "checkoutCart",
      "outputs": [],
      "stateMutability": "payable",
      "type": "function"
    },
    {
      "inputs": [
        {
          "internalType": "uint256",
          "name": "_requestId",
          "type": "uint256"
        },
        {
          "internalType": "string",
          "name": "_unlockedLicense",
          "type": "string"
        }
      ],
      "name": "completeUnlock",
      "outputs": [],
      "stateMutability": "nonpayable",
      "type": "function"
    },
    {
      "inputs": [
        {
          "internalType": "string",
          "name": "_shopName",
          "type": "string"
        },
        {
          "internalType": "string",
          "name": "_detailsCId",
          "type": "string"
        },
        {
          "components": [
            {
              "internalType": "address",
              "name": "addr",
              "type": "address"
            },
            {
              "internalType": "uint8",
              "name": "share",
              "type": "uint8"
            }
          ],
          "internalType": "struct IShop.Beneficiary[]",
          "name": "_beneficiaries",
          "type": "tuple[]"
        }
      ],
      "name": "createShop",
      "outputs": [],
      "stateMutability": "nonpayable",
      "type": "function"
    },
    {
      "inputs": [
        {
          "internalType": "uint256",
          "name": "_shopId",
          "type": "uint256"
        }
      ],
      "name": "getBeneficiaries",
      "outputs": [
        {
          "components": [
            {
              "internalType": "address",
              "name": "addr",
              "type": "address"
            },
            {
              "internalType": "uint8",
              "name": "share",
              "type": "uint8"
            }
          ],
          "internalType": "struct IShop.Beneficiary[]",
          "name": "",
          "type": "tuple[]"
        }
      ],
      "stateMutability": "view",
      "type": "function"
    },
    {
      "inputs": [],
      "name": "getGuildInfo",
      "outputs": [
        {
          "internalType": "address",
          "name": "",
          "type": "address"
        },
        {
          "internalType": "address",
          "name": "",
          "type": "address"
        },
        {
          "internalType": "address",
          "name": "",
          "type": "address"
        },
        {
          "internalType": "uint256",
          "name": "",
          "type": "uint256"
        },
        {
          "internalType": "uint256",
          "name": "",
          "type": "uint256"
        }
      ],
      "stateMutability": "view",
      "type": "function"
    },
    {
      "inputs": [
        {
          "internalType": "uint256",
          "name": "_shopId",
          "type": "uint256"
        }
      ],
      "name": "getOpenSaleIds",
      "outputs": [
        {
          "internalType": "uint256[]",
          "name": "",
          "type": "uint256[]"
        }
      ],
      "stateMutability": "view",
      "type": "function"
    },
    {
      "inputs": [
        {
          "internalType": "uint256",
          "name": "_shopId",
          "type": "uint256"
        },
        {
          "internalType": "uint256",
          "name": "_productId",
          "type": "uint256"
        }
      ],
      "name": "getProductInfo",
      "outputs": [
        {
          "components": [
            {
              "internalType": "string[]",
              "name": "contentCID",
              "type": "string[]"
            },
            {
              "internalType": "string",
              "name": "lockedLicense",
              "type": "string"
            },
            {
              "internalType": "uint256",
              "name": "price",
              "type": "uint256"
            },
            {
              "internalType": "uint256",
              "name": "stock",
              "type": "uint256"
            },
            {
              "internalType": "uint256",
              "name": "salesCount",
              "type": "uint256"
            },
            {
              "internalType": "uint256",
              "name": "revenue",
              "type": "uint256"
            },
            {
              "internalType": "uint256",
              "name": "creationTime",
              "type": "uint256"
            },
            {
              "components": [
                {
                  "internalType": "uint32[4]",
                  "name": "ratingsCount",
                  "type": "uint32[4]"
                }
              ],
              "internalType": "struct IShop.Ratings",
              "name": "ratings",
              "type": "tuple"
            },
            {
              "internalType": "bool",
              "name": "isAvailable",
              "type": "bool"
            }
          ],
          "internalType": "struct IShop.Product",
          "name": "",
          "type": "tuple"
        }
      ],
      "stateMutability": "view",
      "type": "function"
    },
    {
      "inputs": [
        {
          "internalType": "uint256",
          "name": "_shopId",
          "type": "uint256"
        }
      ],
      "name": "getProducts",
      "outputs": [
        {
          "components": [
            {
              "internalType": "string[]",
              "name": "contentCID",
              "type": "string[]"
            },
            {
              "internalType": "string",
              "name": "lockedLicense",
              "type": "string"
            },
            {
              "internalType": "uint256",
              "name": "price",
              "type": "uint256"
            },
            {
              "internalType": "uint256",
              "name": "stock",
              "type": "uint256"
            },
            {
              "internalType": "uint256",
              "name": "salesCount",
              "type": "uint256"
            },
            {
              "internalType": "uint256",
              "name": "revenue",
              "type": "uint256"
            },
            {
              "internalType": "uint256",
              "name": "creationTime",
              "type": "uint256"
            },
            {
              "components": [
                {
                  "internalType": "uint32[4]",
                  "name": "ratingsCount",
                  "type": "uint32[4]"
                }
              ],
              "internalType": "struct IShop.Ratings",
              "name": "ratings",
              "type": "tuple"
            },
            {
              "internalType": "bool",
              "name": "isAvailable",
              "type": "bool"
            }
          ],
          "internalType": "struct IShop.Product[]",
          "name": "",
          "type": "tuple[]"
        }
      ],
      "stateMutability": "view",
      "type": "function"
    },
    {
      "inputs": [
        {
          "internalType": "uint256",
          "name": "_shopId",
          "type": "uint256"
        }
      ],
      "name": "getProductsCount",
      "outputs": [
        {
          "internalType": "uint256",
          "name": "",
          "type": "uint256"
        }
      ],
      "stateMutability": "view",
      "type": "function"
    },
    {
      "inputs": [
        {
          "internalType": "uint256",
          "name": "_shopId",
          "type": "uint256"
        },
        {
          "internalType": "uint256",
          "name": "_saleId",
          "type": "uint256"
        }
      ],
      "name": "getRefund",
      "outputs": [],
      "stateMutability": "payable",
      "type": "function"
    },
    {
      "inputs": [
        {
          "internalType": "uint256",
          "name": "_shopId",
          "type": "uint256"
        },
        {
          "internalType": "uint256",
          "name": "_saleId",
          "type": "uint256"
        }
      ],
      "name": "getSaleInfo",
      "outputs": [
        {
          "components": [
            {
              "internalType": "address",
              "name": "buyer",
              "type": "address"
            },
            {
              "internalType": "string",
              "name": "publicKey",
              "type": "string"
            },
            {
              "internalType": "uint256",
              "name": "productId",
              "type": "uint256"
            },
            {
              "internalType": "uint256",
              "name": "amount",
              "type": "uint256"
            },
            {
              "internalType": "uint256",
              "name": "saleDeadline",
              "type": "uint256"
            },
            {
              "internalType": "string",
              "name": "unlockedLicense",
              "type": "string"
            },
            {
              "internalType": "enum IShop.RatingOptions",
              "name": "rating",
              "type": "uint8"
            },
            {
              "internalType": "enum IShop.SaleStatus",
              "name": "status",
              "type": "uint8"
            }
          ],
          "internalType": "struct IShop.Sale",
          "name": "",
          "type": "tuple"
        }
      ],
      "stateMutability": "view",
      "type": "function"
    },
    {
      "inputs": [],
      "name": "getShopCount",
      "outputs": [
        {
          "internalType": "uint256",
          "name": "",
          "type": "uint256"
        }
      ],
      "stateMutability": "view",
      "type": "function"
    },
    {
      "inputs": [
        {
          "internalType": "string",
          "name": "_shopName",
          "type": "string"
        }
      ],
      "name": "getShopIdFromHandle",
      "outputs": [
        {
          "internalType": "uint256",
          "name": "",
          "type": "uint256"
        }
      ],
      "stateMutability": "view",
      "type": "function"
    },
    {
      "inputs": [
        {
          "internalType": "uint256",
          "name": "_shopId",
          "type": "uint256"
        }
      ],
      "name": "getShopInfo",
      "outputs": [
        {
          "components": [
            {
              "internalType": "address",
              "name": "guild",
              "type": "address"
            },
            {
              "internalType": "address",
              "name": "owner",
              "type": "address"
            },
            {
              "internalType": "string",
              "name": "detailsCId",
              "type": "string"
            },
            {
              "internalType": "string",
              "name": "shopName",
              "type": "string"
            },
            {
              "internalType": "uint256",
              "name": "productsCount",
              "type": "uint256"
            },
            {
              "internalType": "uint256",
              "name": "salesCount",
              "type": "uint256"
            }
          ],
          "internalType": "struct IShop.ShopInfo",
          "name": "",
          "type": "tuple"
        }
      ],
      "stateMutability": "view",
      "type": "function"
    },
    {
      "inputs": [
        {
          "internalType": "string",
          "name": "",
          "type": "string"
        }
      ],
      "name": "isShopNameTaken",
      "outputs": [
        {
          "internalType": "bool",
          "name": "",
          "type": "bool"
        }
      ],
      "stateMutability": "view",
      "type": "function"
    },
    {
      "inputs": [
        {
          "internalType": "uint256",
          "name": "",
          "type": "uint256"
        }
      ],
      "name": "requestIdToRequestIndex",
      "outputs": [
        {
          "internalType": "uint256",
          "name": "",
          "type": "uint256"
        }
      ],
      "stateMutability": "view",
      "type": "function"
    },
    {
      "inputs": [
        {
          "internalType": "uint256",
          "name": "_newRatingReward",
          "type": "uint256"
        }
      ],
      "name": "setRatingReward",
      "outputs": [],
      "stateMutability": "nonpayable",
      "type": "function"
    },
    {
      "inputs": [
        {
          "internalType": "uint256",
          "name": "_newServiceTax",
          "type": "uint256"
        }
      ],
      "name": "setServiceTax",
      "outputs": [],
      "stateMutability": "nonpayable",
      "type": "function"
    },
    {
      "inputs": [],
      "name": "shopFactory",
      "outputs": [
        {
          "internalType": "address",
          "name": "",
          "type": "address"
        }
      ],
      "stateMutability": "view",
      "type": "function"
    },
    {
      "inputs": [
        {
          "internalType": "string",
          "name": "",
          "type": "string"
        }
      ],
      "name": "shopNameToShopId",
      "outputs": [
        {
          "internalType": "uint256",
          "name": "",
          "type": "uint256"
        }
      ],
      "stateMutability": "view",
      "type": "function"
    },
    {
      "inputs": [
        {
          "internalType": "uint256",
          "name": "",
          "type": "uint256"
        }
      ],
      "name": "shops",
      "outputs": [
        {
          "internalType": "address",
          "name": "",
          "type": "address"
        }
      ],
      "stateMutability": "view",
      "type": "function"
    },
    {
      "inputs": [
        {
          "internalType": "uint256",
          "name": "_shopId",
          "type": "uint256"
        },
        {
          "internalType": "uint256",
          "name": "_productId",
          "type": "uint256"
        },
        {
          "internalType": "string",
          "name": "_contentCID",
          "type": "string"
        },
        {
          "internalType": "uint256",
          "name": "_price",
          "type": "uint256"
        },
        {
          "internalType": "uint256",
          "name": "_stock",
          "type": "uint256"
        },
        {
          "internalType": "bool",
          "name": "_isAvailable",
          "type": "bool"
        }
      ],
      "name": "updateProduct",
      "outputs": [],
      "stateMutability": "nonpayable",
      "type": "function"
    },
    {
      "inputs": [
        {
          "internalType": "uint256",
          "name": "_shopId",
          "type": "uint256"
        },
        {
          "internalType": "string",
          "name": "_detailsCId",
          "type": "string"
        }
      ],
      "name": "updateShopDetails",
      "outputs": [],
      "stateMutability": "nonpayable",
      "type": "function"
    }
  ],
  "bytecode": "0x6080604052600060045560006005553480156200001b57600080fd5b506040516200588b3803806200588b833981810160405281019062000041919062000185565b336000806101000a81548173ffffffffffffffffffffffffffffffffffffffff021916908373ffffffffffffffffffffffffffffffffffffffff16021790555081600160006101000a81548173ffffffffffffffffffffffffffffffffffffffff021916908373ffffffffffffffffffffffffffffffffffffffff16021790555080600260006101000a81548173ffffffffffffffffffffffffffffffffffffffff021916908373ffffffffffffffffffffffffffffffffffffffff160217905550600260009054906101000a900473ffffffffffffffffffffffffffffffffffffffff16600760006101000a81548173ffffffffffffffffffffffffffffffffffffffff021916908373ffffffffffffffffffffffffffffffffffffffff16021790555050506200021f565b6000815190506200017f8162000205565b92915050565b600080604083850312156200019f576200019e62000200565b5b6000620001af858286016200016e565b9250506020620001c2858286016200016e565b9150509250929050565b6000620001d982620001e0565b9050919050565b600073ffffffffffffffffffffffffffffffffffffffff82169050919050565b600080fd5b6200021081620001cc565b81146200021c57600080fd5b50565b61565c806200022f6000396000f3fe6080604052600436106101b75760003560e01c8063892c45f9116100ec578063ba48cefc1161008a578063db7a9bc311610064578063db7a9bc314610684578063debad27f146106ad578063e51e83c1146106ea578063ff87d94f14610715576101b7565b8063ba48cefc14610602578063d2c351b41461062b578063db66fa7914610668576101b7565b8063a056631b116100c6578063a056631b1461050e578063a0e811181461054b578063a1132be214610588578063b9d3c0dd146105c5576101b7565b8063892c45f91461046b57806391a68069146104a85780639d268e89146104d1576101b7565b80635c40d2fe1161015957806371f2f8371161013357806371f2f837146103ba578063783804d9146103e957806380e541b21461042657806385fa74bc1461044f576101b7565b80635c40d2fe1461031757806366d9e1a814610354578063713aca741461037d576101b7565b806330f9caa21161019557806330f9caa21461024b57806347c421b51461028857806347fcdbd6146102b15780635bc358f4146102ee576101b7565b80630328945b146101bc57806310d480ba146101e5578063188a7cf11461020e575b600080fd5b3480156101c857600080fd5b506101e360048036038101906101de9190613f07565b610740565b005b3480156101f157600080fd5b5061020c60048036038101906102079190613d0b565b610924565b005b34801561021a57600080fd5b5061023560048036038101906102309190613b40565b6109bc565b6040516102429190614c1e565b60405180910390f35b34801561025757600080fd5b50610272600480360381019061026d9190613b40565b610a4f565b60405161027f9190614c1e565b60405180910390f35b34801561029457600080fd5b506102af60048036038101906102aa9190613980565b610a7d565b005b3480156102bd57600080fd5b506102d860048036038101906102d39190613d0b565b610b4f565b6040516102e59190614a02565b60405180910390f35b3480156102fa57600080fd5b5061031560048036038101906103109190613d0b565b610c19565b005b34801561032357600080fd5b5061033e60048036038101906103399190613e74565b610cb1565b60405161034b9190614bda565b60405180910390f35b34801561036057600080fd5b5061037b60048036038101906103769190613e18565b610d8d565b005b34801561038957600080fd5b506103a4600480360381019061039f9190613d0b565b611024565b6040516103b19190614865565b60405180910390f35b3480156103c657600080fd5b506103cf611063565b6040516103e0959493929190614880565b60405180910390f35b3480156103f557600080fd5b50610410600480360381019061040b9190613d0b565b6110ea565b60405161041d91906149be565b60405180910390f35b34801561043257600080fd5b5061044d60048036038101906104489190613eb4565b6111b4565b005b61046960048036038101906104649190613e74565b611403565b005b34801561047757600080fd5b50610492600480360381019061048d9190613d0b565b61164f565b60405161049f9190614c1e565b60405180910390f35b3480156104b457600080fd5b506104cf60048036038101906104ca9190613d65565b611714565b005b3480156104dd57600080fd5b506104f860048036038101906104f39190613980565b6119f4565b6040516105059190614a3f565b60405180910390f35b34801561051a57600080fd5b5061053560048036038101906105309190613980565b611a94565b6040516105429190614c1e565b60405180910390f35b34801561055757600080fd5b50610572600480360381019061056d9190613d0b565b611aac565b60405161057f9190614c1e565b60405180910390f35b34801561059457600080fd5b506105af60048036038101906105aa9190613b40565b611ac4565b6040516105bc9190614a24565b60405180910390f35b3480156105d157600080fd5b506105ec60048036038101906105e79190613d0b565b611afa565b6040516105f99190614bfc565b60405180910390f35b34801561060e57600080fd5b5061062960048036038101906106249190613e18565b611bca565b005b34801561063757600080fd5b50610652600480360381019061064d9190613e74565b611da2565b60405161065f9190614bb8565b60405180910390f35b610682600480360381019061067d9190613a23565b611e7e565b005b34801561069057600080fd5b506106ab60048036038101906106a69190613b89565b612082565b005b3480156106b957600080fd5b506106d460048036038101906106cf9190613d0b565b61235f565b6040516106e191906149e0565b60405180910390f35b3480156106f657600080fd5b506106ff612429565b60405161070c9190614c1e565b60405180910390f35b34801561072157600080fd5b5061072a612436565b6040516107379190614865565b60405180910390f35b8560038181548110610755576107546152aa565b5b9060005260206000200160009054906101000a900473ffffffffffffffffffffffffffffffffffffffff1673ffffffffffffffffffffffffffffffffffffffff1663893d20e86040518163ffffffff1660e01b815260040160206040518083038186803b1580156107c557600080fd5b505afa1580156107d9573d6000803e3d6000fd5b505050506040513d601f19601f820116820180604052508101906107fd91906139ad565b73ffffffffffffffffffffffffffffffffffffffff163373ffffffffffffffffffffffffffffffffffffffff161461086a576040517f08c379a000000000000000000000000000000000000000000000000000000000815260040161086190614b58565b60405180910390fd5b6003878154811061087e5761087d6152aa565b5b9060005260206000200160009054906101000a900473ffffffffffffffffffffffffffffffffffffffff1673ffffffffffffffffffffffffffffffffffffffff16631d9990ed87878787876040518663ffffffff1660e01b81526004016108e9959493929190614c92565b600060405180830381600087803b15801561090357600080fd5b505af1158015610917573d6000803e3d6000fd5b5050505050505050505050565b60008054906101000a900473ffffffffffffffffffffffffffffffffffffffff1673ffffffffffffffffffffffffffffffffffffffff163373ffffffffffffffffffffffffffffffffffffffff16146109b2576040517f08c379a00000000000000000000000000000000000000000000000000000000081526004016109a990614b78565b60405180910390fd5b8060058190555050565b6000600b826040516109ce919061484e565b908152602001604051809103902060009054906101000a900460ff16610a29576040517f08c379a0000000000000000000000000000000000000000000000000000000008152600401610a2090614b18565b60405180910390fd5b600a82604051610a39919061484e565b9081526020016040518091039020549050919050565b600a818051602081018201805184825260208301602085012081835280955050505050506000915090505481565b60008054906101000a900473ffffffffffffffffffffffffffffffffffffffff1673ffffffffffffffffffffffffffffffffffffffff163373ffffffffffffffffffffffffffffffffffffffff1614610b0b576040517f08c379a0000000000000000000000000000000000000000000000000000000008152600401610b0290614b78565b60405180910390fd5b80600160006101000a81548173ffffffffffffffffffffffffffffffffffffffff021916908373ffffffffffffffffffffffffffffffffffffffff16021790555050565b606060038281548110610b6557610b646152aa565b5b9060005260206000200160009054906101000a900473ffffffffffffffffffffffffffffffffffffffff1673ffffffffffffffffffffffffffffffffffffffff1663992f2bad6040518163ffffffff1660e01b815260040160006040518083038186803b158015610bd557600080fd5b505afa158015610be9573d6000803e3d6000fd5b505050506040513d6000823e3d601f19601f82011682018060405250810190610c129190613af7565b9050919050565b60008054906101000a900473ffffffffffffffffffffffffffffffffffffffff1673ffffffffffffffffffffffffffffffffffffffff163373ffffffffffffffffffffffffffffffffffffffff1614610ca7576040517f08c379a0000000000000000000000000000000000000000000000000000000008152600401610c9e90614b78565b60405180910390fd5b8060048190555050565b610cb9612cc4565b60038381548110610ccd57610ccc6152aa565b5b9060005260206000200160009054906101000a900473ffffffffffffffffffffffffffffffffffffffff1673ffffffffffffffffffffffffffffffffffffffff1663d8f6d596836040518263ffffffff1660e01b8152600401610d309190614c1e565b60006040518083038186803b158015610d4857600080fd5b505afa158015610d5c573d6000803e3d6000fd5b505050506040513d6000823e3d601f19601f82011682018060405250810190610d859190613c79565b905092915050565b600160009054906101000a900473ffffffffffffffffffffffffffffffffffffffff1673ffffffffffffffffffffffffffffffffffffffff163373ffffffffffffffffffffffffffffffffffffffff1614610e1d576040517f08c379a0000000000000000000000000000000000000000000000000000000008152600401610e1490614b38565b60405180910390fd5b6003600860008481526020019081526020016000206001015481548110610e4757610e466152aa565b5b9060005260206000200160009054906101000a900473ffffffffffffffffffffffffffffffffffffffff1673ffffffffffffffffffffffffffffffffffffffff1663272e21d56008600085815260200190815260200160002060020154836040518363ffffffff1660e01b8152600401610ec2929190614c62565b600060405180830381600087803b158015610edc57600080fd5b505af1158015610ef0573d6000803e3d6000fd5b5050505060066001600680549050610f08919061501d565b81548110610f1957610f186152aa565b5b90600052602060002001546006600960008581526020019081526020016000205481548110610f4b57610f4a6152aa565b5b906000526020600020018190555060096000838152602001908152602001600020546009600060066001600680549050610f85919061501d565b81548110610f9657610f956152aa565b5b90600052602060002001548152602001908152602001600020819055506006805480610fc557610fc461527b565b5b600190038181906000526020600020016000905590556009600083815260200190815260200160002060009055600860008381526020019081526020016000206000808201600090556001820160009055600282016000905550505050565b6003818154811061103457600080fd5b906000526020600020016000915054906101000a900473ffffffffffffffffffffffffffffffffffffffff1681565b60008060008060008060009054906101000a900473ffffffffffffffffffffffffffffffffffffffff16600160009054906101000a900473ffffffffffffffffffffffffffffffffffffffff16600260009054906101000a900473ffffffffffffffffffffffffffffffffffffffff16600454600554945094509450945094509091929394565b606060038281548110611100576110ff6152aa565b5b9060005260206000200160009054906101000a900473ffffffffffffffffffffffffffffffffffffffff1673ffffffffffffffffffffffffffffffffffffffff1663913b722c6040518163ffffffff1660e01b815260040160006040518083038186803b15801561117057600080fd5b505afa158015611184573d6000803e3d6000fd5b505050506040513d6000823e3d601f19601f820116820180604052508101906111ad91906139da565b9050919050565b82826000600383815481106111cc576111cb6152aa565b5b9060005260206000200160009054906101000a900473ffffffffffffffffffffffffffffffffffffffff1673ffffffffffffffffffffffffffffffffffffffff1663d8f6d596836040518263ffffffff1660e01b815260040161122f9190614c1e565b60006040518083038186803b15801561124757600080fd5b505afa15801561125b573d6000803e3d6000fd5b505050506040513d6000823e3d601f19601f820116820180604052508101906112849190613c79565b9050806000015173ffffffffffffffffffffffffffffffffffffffff163373ffffffffffffffffffffffffffffffffffffffff16146112f8576040517f08c379a00000000000000000000000000000000000000000000000000000000081526004016112ef90614b98565b60405180910390fd5b6003868154811061130c5761130b6152aa565b5b9060005260206000200160009054906101000a900473ffffffffffffffffffffffffffffffffffffffff1673ffffffffffffffffffffffffffffffffffffffff1663cf270c8986866040518363ffffffff1660e01b8152600401611371929190614c39565b600060405180830381600087803b15801561138b57600080fd5b505af115801561139f573d6000803e3d6000fd5b50505050600454600c60003373ffffffffffffffffffffffffffffffffffffffff1673ffffffffffffffffffffffffffffffffffffffff16815260200190815260200160002060008282546113f49190614fc7565b92505081905550505050505050565b818160006003838154811061141b5761141a6152aa565b5b9060005260206000200160009054906101000a900473ffffffffffffffffffffffffffffffffffffffff1673ffffffffffffffffffffffffffffffffffffffff1663d8f6d596836040518263ffffffff1660e01b815260040161147e9190614c1e565b60006040518083038186803b15801561149657600080fd5b505afa1580156114aa573d6000803e3d6000fd5b505050506040513d6000823e3d601f19601f820116820180604052508101906114d39190613c79565b9050806000015173ffffffffffffffffffffffffffffffffffffffff163373ffffffffffffffffffffffffffffffffffffffff1614611547576040517f08c379a000000000000000000000000000000000000000000000000000000000815260040161153e90614b98565b60405180910390fd5b600454600c60003373ffffffffffffffffffffffffffffffffffffffff1673ffffffffffffffffffffffffffffffffffffffff16815260200190815260200160002060008282546115989190614fc7565b92505081905550600385815481106115b3576115b26152aa565b5b9060005260206000200160009054906101000a900473ffffffffffffffffffffffffffffffffffffffff1673ffffffffffffffffffffffffffffffffffffffff1663d2f0be99856040518263ffffffff1660e01b81526004016116169190614c1e565b600060405180830381600087803b15801561163057600080fd5b505af1158015611644573d6000803e3d6000fd5b505050505050505050565b600060038281548110611665576116646152aa565b5b9060005260206000200160009054906101000a900473ffffffffffffffffffffffffffffffffffffffff1673ffffffffffffffffffffffffffffffffffffffff16635786fd406040518163ffffffff1660e01b815260040160206040518083038186803b1580156116d557600080fd5b505afa1580156116e9573d6000803e3d6000fd5b505050506040513d601f19601f8201168201806040525081019061170d9190613d38565b9050919050565b8460038181548110611729576117286152aa565b5b9060005260206000200160009054906101000a900473ffffffffffffffffffffffffffffffffffffffff1673ffffffffffffffffffffffffffffffffffffffff1663893d20e86040518163ffffffff1660e01b815260040160206040518083038186803b15801561179957600080fd5b505afa1580156117ad573d6000803e3d6000fd5b505050506040513d601f19601f820116820180604052508101906117d191906139ad565b73ffffffffffffffffffffffffffffffffffffffff163373ffffffffffffffffffffffffffffffffffffffff161461183e576040517f08c379a000000000000000000000000000000000000000000000000000000000815260040161183590614b58565b60405180910390fd5b60038681548110611852576118516152aa565b5b9060005260206000200160009054906101000a900473ffffffffffffffffffffffffffffffffffffffff1673ffffffffffffffffffffffffffffffffffffffff1663a9d657a8868686866040518563ffffffff1660e01b81526004016118bb949392919061496b565b600060405180830381600087803b1580156118d557600080fd5b505af11580156118e9573d6000803e3d6000fd5b50505050857f2a60815e9d2622a909b3c2b731fa879a529c93b5fecdb1cfea183695707572cc600160038981548110611925576119246152aa565b5b9060005260206000200160009054906101000a900473ffffffffffffffffffffffffffffffffffffffff1673ffffffffffffffffffffffffffffffffffffffff16635786fd406040518163ffffffff1660e01b815260040160206040518083038186803b15801561199557600080fd5b505afa1580156119a9573d6000803e3d6000fd5b505050506040513d601f19601f820116820180604052508101906119cd9190613d38565b6119d7919061501d565b6040516119e49190614c1e565b60405180910390a2505050505050565b600d6020528060005260406000206000915090508054611a1390615142565b80601f0160208091040260200160405190810160405280929190818152602001828054611a3f90615142565b8015611a8c5780601f10611a6157610100808354040283529160200191611a8c565b820191906000526020600020905b815481529060010190602001808311611a6f57829003601f168201915b505050505081565b600c6020528060005260406000206000915090505481565b60096020528060005260406000206000915090505481565b600b818051602081018201805184825260208301602085012081835280955050505050506000915054906101000a900460ff1681565b611b02612d43565b60038281548110611b1657611b156152aa565b5b9060005260206000200160009054906101000a900473ffffffffffffffffffffffffffffffffffffffff1673ffffffffffffffffffffffffffffffffffffffff1663c1d2b0bf6040518163ffffffff1660e01b815260040160006040518083038186803b158015611b8657600080fd5b505afa158015611b9a573d6000803e3d6000fd5b505050506040513d6000823e3d601f19601f82011682018060405250810190611bc39190613cc2565b9050919050565b8160038181548110611bdf57611bde6152aa565b5b9060005260206000200160009054906101000a900473ffffffffffffffffffffffffffffffffffffffff1673ffffffffffffffffffffffffffffffffffffffff1663893d20e86040518163ffffffff1660e01b815260040160206040518083038186803b158015611c4f57600080fd5b505afa158015611c63573d6000803e3d6000fd5b505050506040513d601f19601f82011682018060405250810190611c8791906139ad565b73ffffffffffffffffffffffffffffffffffffffff163373ffffffffffffffffffffffffffffffffffffffff1614611cf4576040517f08c379a0000000000000000000000000000000000000000000000000000000008152600401611ceb90614b58565b60405180910390fd5b60038381548110611d0857611d076152aa565b5b9060005260206000200160009054906101000a900473ffffffffffffffffffffffffffffffffffffffff1673ffffffffffffffffffffffffffffffffffffffff1663299d3614836040518263ffffffff1660e01b8152600401611d6b9190614a3f565b600060405180830381600087803b158015611d8557600080fd5b505af1158015611d99573d6000803e3d6000fd5b50505050505050565b611daa612da5565b60038381548110611dbe57611dbd6152aa565b5b9060005260206000200160009054906101000a900473ffffffffffffffffffffffffffffffffffffffff1673ffffffffffffffffffffffffffffffffffffffff1663b9db15b4836040518263ffffffff1660e01b8152600401611e219190614c1e565b60006040518083038186803b158015611e3957600080fd5b505afa158015611e4d573d6000803e3d6000fd5b505050506040513d6000823e3d601f19601f82011682018060405250810190611e769190613c30565b905092915050565b600034905081600c60003373ffffffffffffffffffffffffffffffffffffffff1673ffffffffffffffffffffffffffffffffffffffff168152602001908152602001600020541015611f05576040517f08c379a0000000000000000000000000000000000000000000000000000000008152600401611efc90614ab8565b60405180910390fd5b81600c60003373ffffffffffffffffffffffffffffffffffffffff1673ffffffffffffffffffffffffffffffffffffffff1681526020019081526020016000206000828254611f54919061501d565b925050819055508181611f679190614fc7565b905060005b845181101561207b57848181518110611f8857611f876152aa565b5b602002602001015160400151821015611fd6576040517f08c379a0000000000000000000000000000000000000000000000000000000008152600401611fcd90614af8565b60405180910390fd5b848181518110611fe957611fe86152aa565b5b60200260200101516040015182612000919061501d565b9150612068858281518110612018576120176152aa565b5b602002602001015160000151868381518110612037576120366152aa565b5b60200260200101516020015186888581518110612057576120566152aa565b5b60200260200101516040015161245c565b8080612073906151a5565b915050611f6c565b5050505050565b600b83604051612092919061484e565b908152602001604051809103902060009054906101000a900460ff16156120ee576040517f08c379a00000000000000000000000000000000000000000000000000000000081526004016120e590614a98565b60405180910390fd5b600760009054906101000a900473ffffffffffffffffffffffffffffffffffffffff1673ffffffffffffffffffffffffffffffffffffffff16639472760d338585856040518563ffffffff1660e01b815260040161214f94939291906148d3565b600060405180830381600087803b15801561216957600080fd5b505af115801561217d573d6000803e3d6000fd5b505050506003600760009054906101000a900473ffffffffffffffffffffffffffffffffffffffff1673ffffffffffffffffffffffffffffffffffffffff16633f7b27d56040518163ffffffff1660e01b815260040160206040518083038186803b1580156121eb57600080fd5b505afa1580156121ff573d6000803e3d6000fd5b505050506040513d601f19601f8201168201806040525081019061222391906139ad565b9080600181540180825580915050600190039060005260206000200160009091909190916101000a81548173ffffffffffffffffffffffffffffffffffffffff021916908373ffffffffffffffffffffffffffffffffffffffff1602179055506001600380549050612295919061501d565b600a846040516122a5919061484e565b9081526020016040518091039020819055506001600b846040516122c9919061484e565b908152602001604051809103902060006101000a81548160ff0219169083151502179055503373ffffffffffffffffffffffffffffffffffffffff167f9f72cef855334558e5b6a87934fe666cced3893f8f256a17a302209299490951600a85604051612336919061484e565b9081526020016040518091039020546040516123529190614c1e565b60405180910390a2505050565b606060038281548110612375576123746152aa565b5b9060005260206000200160009054906101000a900473ffffffffffffffffffffffffffffffffffffffff1673ffffffffffffffffffffffffffffffffffffffff1663c29b2f206040518163ffffffff1660e01b815260040160006040518083038186803b1580156123e557600080fd5b505afa1580156123f9573d6000803e3d6000fd5b505050506040513d6000823e3d601f19601f820116820180604052508101906124229190613aae565b9050919050565b6000600380549050905090565b600260009054906101000a900473ffffffffffffffffffffffffffffffffffffffff1681565b6000825114156125c0576000600d60003373ffffffffffffffffffffffffffffffffffffffff1673ffffffffffffffffffffffffffffffffffffffff16815260200190815260200160002080546124b290615142565b905014156124f5576040517f08c379a00000000000000000000000000000000000000000000000000000000081526004016124ec90614ad8565b60405180910390fd5b600d60003373ffffffffffffffffffffffffffffffffffffffff1673ffffffffffffffffffffffffffffffffffffffff168152602001908152602001600020805461253f90615142565b80601f016020809104026020016040519081016040528092919081815260200182805461256b90615142565b80156125b85780601f1061258d576101008083540402835291602001916125b8565b820191906000526020600020905b81548152906001019060200180831161259b57829003601f168201915b505050505091505b600384815481106125d4576125d36152aa565b5b9060005260206000200160009054906101000a900473ffffffffffffffffffffffffffffffffffffffff1673ffffffffffffffffffffffffffffffffffffffff16635bf500b76005546004548461262b919061501d565b612635919061501d565b3386866040518563ffffffff1660e01b81526004016126569392919061492d565b6000604051808303818588803b15801561266f57600080fd5b505af1158015612683573d6000803e3d6000fd5b505050505060006003858154811061269e5761269d6152aa565b5b9060005260206000200160009054906101000a900473ffffffffffffffffffffffffffffffffffffffff1673ffffffffffffffffffffffffffffffffffffffff1663d8f6d5966001600388815481106126fa576126f96152aa565b5b9060005260206000200160009054906101000a900473ffffffffffffffffffffffffffffffffffffffff1673ffffffffffffffffffffffffffffffffffffffff1663dd8027db6040518163ffffffff1660e01b815260040160206040518083038186803b15801561276a57600080fd5b505afa15801561277e573d6000803e3d6000fd5b505050506040513d601f19601f820116820180604052508101906127a29190613d38565b6127ac919061501d565b6040518263ffffffff1660e01b81526004016127c89190614c1e565b60006040518083038186803b1580156127e057600080fd5b505afa1580156127f4573d6000803e3d6000fd5b505050506040513d6000823e3d601f19601f8201168201806040525081019061281d9190613c79565b9050600060038681548110612835576128346152aa565b5b9060005260206000200160009054906101000a900473ffffffffffffffffffffffffffffffffffffffff1673ffffffffffffffffffffffffffffffffffffffff1663b9db15b4866040518263ffffffff1660e01b81526004016128989190614c1e565b60006040518083038186803b1580156128b057600080fd5b505afa1580156128c4573d6000803e3d6000fd5b505050506040513d6000823e3d601f19601f820116820180604052508101906128ed9190613c30565b9050600160009054906101000a900473ffffffffffffffffffffffffffffffffffffffff1673ffffffffffffffffffffffffffffffffffffffff1663b9da4af88260200151866040518363ffffffff1660e01b8152600401612950929190614a61565b600060405180830381600087803b15801561296a57600080fd5b505af115801561297e573d6000803e3d6000fd5b50505050600060018060009054906101000a900473ffffffffffffffffffffffffffffffffffffffff1673ffffffffffffffffffffffffffffffffffffffff1663fbfa4b7f6040518163ffffffff1660e01b815260040160206040518083038186803b1580156129ed57600080fd5b505afa158015612a01573d6000803e3d6000fd5b505050506040513d601f19601f82011682018060405250810190612a259190613d38565b612a2f919061501d565b90506040518060600160405280828152602001888152602001600160038a81548110612a5e57612a5d6152aa565b5b9060005260206000200160009054906101000a900473ffffffffffffffffffffffffffffffffffffffff1673ffffffffffffffffffffffffffffffffffffffff1663dd8027db6040518163ffffffff1660e01b815260040160206040518083038186803b158015612ace57600080fd5b505afa158015612ae2573d6000803e3d6000fd5b505050506040513d601f19601f82011682018060405250810190612b069190613d38565b612b10919061501d565b8152506008600083815260200190815260200160002060008201518160000155602082015181600101556040820151816002015590505060068190806001815401808255809150506001900390600052602060002001600090919091909150556001600680549050612b82919061501d565b600960008381526020019081526020016000208190555082604001513373ffffffffffffffffffffffffffffffffffffffff16887f5cb9ba43d895b2b52a05833fb1e6a565cf3e245d62332664ecede22586f90184856000015151600160038d81548110612bf357612bf26152aa565b5b9060005260206000200160009054906101000a900473ffffffffffffffffffffffffffffffffffffffff1673ffffffffffffffffffffffffffffffffffffffff1663dd8027db6040518163ffffffff1660e01b815260040160206040518083038186803b158015612c6357600080fd5b505afa158015612c77573d6000803e3d6000fd5b505050506040513d601f19601f82011682018060405250810190612c9b9190613d38565b612ca5919061501d565b604051612cb3929190614cec565b60405180910390a450505050505050565b604051806101000160405280600073ffffffffffffffffffffffffffffffffffffffff168152602001606081526020016000815260200160008152602001600081526020016060815260200160006004811115612d2457612d2361521d565b5b815260200160006003811115612d3d57612d3c61521d565b5b81525090565b6040518060c00160405280600073ffffffffffffffffffffffffffffffffffffffff168152602001600073ffffffffffffffffffffffffffffffffffffffff168152602001606081526020016060815260200160008152602001600081525090565b60405180610120016040528060608152602001606081526020016000815260200160008152602001600081526020016000815260200160008152602001612dea612df9565b81526020016000151581525090565b6040518060200160405280612e0c612e12565b81525090565b6040518060800160405280600490602082028036833780820191505090505090565b6000612e47612e4284614d3a565b614d15565b90508083825260208201905082856020860282011115612e6a57612e69615317565b5b60005b85811015612eb857813567ffffffffffffffff811115612e9057612e8f615308565b5b808601612e9d8982613489565b85526020850194506020840193505050600181019050612e6d565b5050509392505050565b6000612ed5612ed084614d3a565b614d15565b90508083825260208201905082856020860282011115612ef857612ef7615317565b5b60005b85811015612f4657815167ffffffffffffffff811115612f1e57612f1d615308565b5b808601612f2b89826134b7565b85526020850194506020840193505050600181019050612efb565b5050509392505050565b6000612f63612f5e84614d66565b614d15565b90508083825260208201905082856040860282011115612f8657612f85615317565b5b60005b85811015612fb65781612f9c88826134e5565b845260208401935060408301925050600181019050612f89565b5050509392505050565b6000612fd3612fce84614d66565b614d15565b90508083825260208201905082856040860282011115612ff657612ff5615317565b5b60005b85811015613026578161300c8882613535565b845260208401935060408301925050600181019050612ff9565b5050509392505050565b600061304361303e84614d92565b614d15565b9050808382526020820190508285606086028201111561306657613065615317565b5b60005b85811015613096578161307c8882613585565b845260208401935060608301925050600181019050613069565b5050509392505050565b60006130b36130ae84614dbe565b614d15565b905080838252602082019050828560208602820111156130d6576130d5615317565b5b60005b8581101561312457815167ffffffffffffffff8111156130fc576130fb615308565b5b80860161310989826135e9565b855260208501945060208401935050506001810190506130d9565b5050509392505050565b600061314161313c84614dea565b614d15565b9050808382526020820190508285602086028201111561316457613163615317565b5b60005b85811015613194578161317a888261392c565b845260208401935060208301925050600181019050613167565b5050509392505050565b60006131b16131ac84614e16565b614d15565b905080828560208602820111156131cb576131ca615317565b5b60005b858110156131fb57816131e18882613941565b8452602084019350602083019250506001810190506131ce565b5050509392505050565b600061321861321384614e3c565b614d15565b9050828152602081018484840111156132345761323361531c565b5b61323f848285615100565b509392505050565b600061325a61325584614e3c565b614d15565b9050828152602081018484840111156132765761327561531c565b5b61328184828561510f565b509392505050565b60008135905061329881615593565b92915050565b6000815190506132ad81615593565b92915050565b600082601f8301126132c8576132c7615308565b5b81356132d8848260208601612e34565b91505092915050565b600082601f8301126132f6576132f5615308565b5b8151613306848260208601612ec2565b91505092915050565b600082601f83011261332457613323615308565b5b8135613334848260208601612f50565b91505092915050565b600082601f83011261335257613351615308565b5b8151613362848260208601612fc0565b91505092915050565b600082601f8301126133805761337f615308565b5b8135613390848260208601613030565b91505092915050565b600082601f8301126133ae576133ad615308565b5b81516133be8482602086016130a0565b91505092915050565b600082601f8301126133dc576133db615308565b5b81516133ec84826020860161312e565b91505092915050565b600082601f83011261340a57613409615308565b5b600461341784828561319e565b91505092915050565b60008135905061342f816155aa565b92915050565b600081519050613444816155aa565b92915050565b600081359050613459816155c1565b92915050565b60008151905061346e816155c1565b92915050565b600081519050613483816155d1565b92915050565b600082601f83011261349e5761349d615308565b5b81356134ae848260208601613205565b91505092915050565b600082601f8301126134cc576134cb615308565b5b81516134dc848260208601613247565b91505092915050565b6000604082840312156134fb576134fa61530d565b5b6135056040614d15565b9050600061351584828501613289565b600083015250602061352984828501613956565b60208301525092915050565b60006040828403121561354b5761354a61530d565b5b6135556040614d15565b905060006135658482850161329e565b60008301525060206135798482850161396b565b60208301525092915050565b60006060828403121561359b5761359a61530d565b5b6135a56060614d15565b905060006135b584828501613917565b60008301525060206135c984828501613917565b60208301525060406135dd84828501613917565b60408301525092915050565b60006101808284031215613600576135ff61530d565b5b61360b610120614d15565b9050600082015167ffffffffffffffff81111561362b5761362a615312565b5b613637848285016132e1565b600083015250602082015167ffffffffffffffff81111561365b5761365a615312565b5b613667848285016134b7565b602083015250604061367b8482850161392c565b604083015250606061368f8482850161392c565b60608301525060806136a38482850161392c565b60808301525060a06136b78482850161392c565b60a08301525060c06136cb8482850161392c565b60c08301525060e06136df84828501613701565b60e0830152506101606136f484828501613435565b6101008301525092915050565b6000608082840312156137175761371661530d565b5b6137216020614d15565b90506000613731848285016133f5565b60008301525092915050565b600061010082840312156137545761375361530d565b5b61375f610100614d15565b9050600061376f8482850161329e565b600083015250602082015167ffffffffffffffff81111561379357613792615312565b5b61379f848285016134b7565b60208301525060406137b38482850161392c565b60408301525060606137c78482850161392c565b60608301525060806137db8482850161392c565b60808301525060a082015167ffffffffffffffff8111156137ff576137fe615312565b5b61380b848285016134b7565b60a08301525060c061381f8482850161345f565b60c08301525060e061383384828501613474565b60e08301525092915050565b600060c082840312156138555761385461530d565b5b61385f60c0614d15565b9050600061386f8482850161329e565b60008301525060206138838482850161329e565b602083015250604082015167ffffffffffffffff8111156138a7576138a6615312565b5b6138b3848285016134b7565b604083015250606082015167ffffffffffffffff8111156138d7576138d6615312565b5b6138e3848285016134b7565b60608301525060806138f78482850161392c565b60808301525060a061390b8482850161392c565b60a08301525092915050565b600081359050613926816155e1565b92915050565b60008151905061393b816155e1565b92915050565b600081519050613950816155f8565b92915050565b6000813590506139658161560f565b92915050565b60008151905061397a8161560f565b92915050565b60006020828403121561399657613995615326565b5b60006139a484828501613289565b91505092915050565b6000602082840312156139c3576139c2615326565b5b60006139d18482850161329e565b91505092915050565b6000602082840312156139f0576139ef615326565b5b600082015167ffffffffffffffff811115613a0e57613a0d615321565b5b613a1a8482850161333d565b91505092915050565b600080600060608486031215613a3c57613a3b615326565b5b600084013567ffffffffffffffff811115613a5a57613a59615321565b5b613a668682870161336b565b935050602084013567ffffffffffffffff811115613a8757613a86615321565b5b613a9386828701613489565b9250506040613aa486828701613917565b9150509250925092565b600060208284031215613ac457613ac3615326565b5b600082015167ffffffffffffffff811115613ae257613ae1615321565b5b613aee84828501613399565b91505092915050565b600060208284031215613b0d57613b0c615326565b5b600082015167ffffffffffffffff811115613b2b57613b2a615321565b5b613b37848285016133c7565b91505092915050565b600060208284031215613b5657613b55615326565b5b600082013567ffffffffffffffff811115613b7457613b73615321565b5b613b8084828501613489565b91505092915050565b600080600060608486031215613ba257613ba1615326565b5b600084013567ffffffffffffffff811115613bc057613bbf615321565b5b613bcc86828701613489565b935050602084013567ffffffffffffffff811115613bed57613bec615321565b5b613bf986828701613489565b925050604084013567ffffffffffffffff811115613c1a57613c19615321565b5b613c268682870161330f565b9150509250925092565b600060208284031215613c4657613c45615326565b5b600082015167ffffffffffffffff811115613c6457613c63615321565b5b613c70848285016135e9565b91505092915050565b600060208284031215613c8f57613c8e615326565b5b600082015167ffffffffffffffff811115613cad57613cac615321565b5b613cb98482850161373d565b91505092915050565b600060208284031215613cd857613cd7615326565b5b600082015167ffffffffffffffff811115613cf657613cf5615321565b5b613d028482850161383f565b91505092915050565b600060208284031215613d2157613d20615326565b5b6000613d2f84828501613917565b91505092915050565b600060208284031215613d4e57613d4d615326565b5b6000613d5c8482850161392c565b91505092915050565b600080600080600060a08688031215613d8157613d80615326565b5b6000613d8f88828901613917565b955050602086013567ffffffffffffffff811115613db057613daf615321565b5b613dbc888289016132b3565b945050604086013567ffffffffffffffff811115613ddd57613ddc615321565b5b613de988828901613489565b9350506060613dfa88828901613917565b9250506080613e0b88828901613917565b9150509295509295909350565b60008060408385031215613e2f57613e2e615326565b5b6000613e3d85828601613917565b925050602083013567ffffffffffffffff811115613e5e57613e5d615321565b5b613e6a85828601613489565b9150509250929050565b60008060408385031215613e8b57613e8a615326565b5b6000613e9985828601613917565b9250506020613eaa85828601613917565b9150509250929050565b600080600060608486031215613ecd57613ecc615326565b5b6000613edb86828701613917565b9350506020613eec86828701613917565b9250506040613efd8682870161344a565b9150509250925092565b60008060008060008060c08789031215613f2457613f23615326565b5b6000613f3289828a01613917565b9650506020613f4389828a01613917565b955050604087013567ffffffffffffffff811115613f6457613f63615321565b5b613f7089828a01613489565b9450506060613f8189828a01613917565b9350506080613f9289828a01613917565b92505060a0613fa389828a01613420565b9150509295509295509295565b6000613fbc83836142fb565b905092915050565b6000613fd083836144d9565b60408301905092915050565b6000613fe88383614508565b905092915050565b6000613ffc8383614803565b60208301905092915050565b60006140148383614821565b60208301905092915050565b61402981615051565b82525050565b61403881615051565b82525050565b600061404982614eb7565b6140538185614f3a565b93508360208202850161406585614e6d565b8060005b858110156140a157848403895281516140828582613fb0565b945061408d83614ef9565b925060208a01995050600181019050614069565b50829750879550505050505092915050565b60006140be82614eb7565b6140c88185614f4b565b9350836020820285016140da85614e6d565b8060005b8581101561411657848403895281516140f78582613fb0565b945061410283614ef9565b925060208a019950506001810190506140de565b50829750879550505050505092915050565b600061413382614ec2565b61413d8185614f5c565b935061414883614e7d565b8060005b838110156141795781516141608882613fc4565b975061416b83614f06565b92505060018101905061414c565b5085935050505092915050565b600061419182614ecd565b61419b8185614f6d565b9350836020820285016141ad85614e8d565b8060005b858110156141e957848403895281516141ca8582613fdc565b94506141d583614f13565b925060208a019950506001810190506141b1565b50829750879550505050505092915050565b600061420682614ed8565b6142108185614f7e565b935061421b83614e9d565b8060005b8381101561424c5781516142338882613ff0565b975061423e83614f20565b92505060018101905061421f565b5085935050505092915050565b61426281614ee3565b61426c8184614f8f565b925061427782614ead565b8060005b838110156142a857815161428f8782614008565b965061429a83614f2d565b92505060018101905061427b565b505050505050565b6142b981615063565b82525050565b6142c881615063565b82525050565b6142d7816150dc565b82525050565b6142e6816150dc565b82525050565b6142f5816150ee565b82525050565b600061430682614eee565b6143108185614f9a565b935061432081856020860161510f565b6143298161532b565b840191505092915050565b600061433f82614eee565b6143498185614fab565b935061435981856020860161510f565b6143628161532b565b840191505092915050565b600061437882614eee565b6143828185614fbc565b935061439281856020860161510f565b80840191505092915050565b60006143ab601783614fab565b91506143b68261533c565b602082019050919050565b60006143ce601283614fab565b91506143d982615365565b602082019050919050565b60006143f1602183614fab565b91506143fc8261538e565b604082019050919050565b6000614414601083614fab565b915061441f826153dd565b602082019050919050565b6000614437601383614fab565b915061444282615406565b602082019050919050565b600061445a602983614fab565b91506144658261542f565b604082019050919050565b600061447d602683614fab565b91506144888261547e565b604082019050919050565b60006144a0602183614fab565b91506144ab826154cd565b604082019050919050565b60006144c3602183614fab565b91506144ce8261551c565b604082019050919050565b6040820160008201516144ef6000850182614020565b5060208201516145026020850182614830565b50505050565b6000610180830160008301518482036000860152614526828261403e565b9150506020830151848203602086015261454082826142fb565b91505060408301516145556040860182614803565b5060608301516145686060860182614803565b50608083015161457b6080860182614803565b5060a083015161458e60a0860182614803565b5060c08301516145a160c0860182614803565b5060e08301516145b460e08601826146a0565b506101008301516145c96101608601826142b0565b508091505092915050565b60006101808301600083015184820360008601526145f2828261403e565b9150506020830151848203602086015261460c82826142fb565b91505060408301516146216040860182614803565b5060608301516146346060860182614803565b5060808301516146476080860182614803565b5060a083015161465a60a0860182614803565b5060c083015161466d60c0860182614803565b5060e083015161468060e08601826146a0565b506101008301516146956101608601826142b0565b508091505092915050565b6080820160008201516146b66000850182614259565b50505050565b6000610100830160008301516146d56000860182614020565b50602083015184820360208601526146ed82826142fb565b91505060408301516147026040860182614803565b5060608301516147156060860182614803565b5060808301516147286080860182614803565b5060a083015184820360a086015261474082826142fb565b91505060c083015161475560c08601826142ce565b5060e083015161476860e08601826142ec565b508091505092915050565b600060c08301600083015161478b6000860182614020565b50602083015161479e6020860182614020565b50604083015184820360408601526147b682826142fb565b915050606083015184820360608601526147d082826142fb565b91505060808301516147e56080860182614803565b5060a08301516147f860a0860182614803565b508091505092915050565b61480c816150b5565b82525050565b61481b816150b5565b82525050565b61482a816150bf565b82525050565b614839816150cf565b82525050565b614848816150cf565b82525050565b600061485a828461436d565b915081905092915050565b600060208201905061487a600083018461402f565b92915050565b600060a082019050614895600083018861402f565b6148a2602083018761402f565b6148af604083018661402f565b6148bc6060830185614812565b6148c96080830184614812565b9695505050505050565b60006080820190506148e8600083018761402f565b81810360208301526148fa8186614334565b9050818103604083015261490e8185614334565b905081810360608301526149228184614128565b905095945050505050565b6000606082019050614942600083018661402f565b61494f6020830185614812565b81810360408301526149618184614334565b9050949350505050565b6000608082019050818103600083015261498581876140b3565b905081810360208301526149998186614334565b90506149a86040830185614812565b6149b56060830184614812565b95945050505050565b600060208201905081810360008301526149d88184614128565b905092915050565b600060208201905081810360008301526149fa8184614186565b905092915050565b60006020820190508181036000830152614a1c81846141fb565b905092915050565b6000602082019050614a3960008301846142bf565b92915050565b60006020820190508181036000830152614a598184614334565b905092915050565b60006040820190508181036000830152614a7b8185614334565b90508181036020830152614a8f8184614334565b90509392505050565b60006020820190508181036000830152614ab18161439e565b9050919050565b60006020820190508181036000830152614ad1816143c1565b9050919050565b60006020820190508181036000830152614af1816143e4565b9050919050565b60006020820190508181036000830152614b1181614407565b9050919050565b60006020820190508181036000830152614b318161442a565b9050919050565b60006020820190508181036000830152614b518161444d565b9050919050565b60006020820190508181036000830152614b7181614470565b9050919050565b60006020820190508181036000830152614b9181614493565b9050919050565b60006020820190508181036000830152614bb1816144b6565b9050919050565b60006020820190508181036000830152614bd281846145d4565b905092915050565b60006020820190508181036000830152614bf481846146bc565b905092915050565b60006020820190508181036000830152614c168184614773565b905092915050565b6000602082019050614c336000830184614812565b92915050565b6000604082019050614c4e6000830185614812565b614c5b60208301846142dd565b9392505050565b6000604082019050614c776000830185614812565b8181036020830152614c898184614334565b90509392505050565b600060a082019050614ca76000830188614812565b8181036020830152614cb98187614334565b9050614cc86040830186614812565b614cd56060830185614812565b614ce260808301846142bf565b9695505050505050565b6000604082019050614d01600083018561483f565b614d0e6020830184614812565b9392505050565b6000614d1f614d30565b9050614d2b8282615174565b919050565b6000604051905090565b600067ffffffffffffffff821115614d5557614d546152d9565b5b602082029050602081019050919050565b600067ffffffffffffffff821115614d8157614d806152d9565b5b602082029050602081019050919050565b600067ffffffffffffffff821115614dad57614dac6152d9565b5b602082029050602081019050919050565b600067ffffffffffffffff821115614dd957614dd86152d9565b5b602082029050602081019050919050565b600067ffffffffffffffff821115614e0557614e046152d9565b5b602082029050602081019050919050565b600067ffffffffffffffff821115614e3157614e306152d9565b5b602082029050919050565b600067ffffffffffffffff821115614e5757614e566152d9565b5b614e608261532b565b9050602081019050919050565b6000819050602082019050919050565b6000819050602082019050919050565b6000819050602082019050919050565b6000819050602082019050919050565b6000819050919050565b600081519050919050565b600081519050919050565b600081519050919050565b600081519050919050565b600060049050919050565b600081519050919050565b6000602082019050919050565b6000602082019050919050565b6000602082019050919050565b6000602082019050919050565b6000602082019050919050565b600082825260208201905092915050565b600082825260208201905092915050565b600082825260208201905092915050565b600082825260208201905092915050565b600082825260208201905092915050565b600081905092915050565b600082825260208201905092915050565b600082825260208201905092915050565b600081905092915050565b6000614fd2826150b5565b9150614fdd836150b5565b9250827fffffffffffffffffffffffffffffffffffffffffffffffffffffffffffffffff03821115615012576150116151ee565b5b828201905092915050565b6000615028826150b5565b9150615033836150b5565b925082821015615046576150456151ee565b5b828203905092915050565b600061505c82615095565b9050919050565b60008115159050919050565b600081905061507d8261556b565b919050565b60008190506150908261557f565b919050565b600073ffffffffffffffffffffffffffffffffffffffff82169050919050565b6000819050919050565b600063ffffffff82169050919050565b600060ff82169050919050565b60006150e78261506f565b9050919050565b60006150f982615082565b9050919050565b82818337600083830152505050565b60005b8381101561512d578082015181840152602081019050615112565b8381111561513c576000848401525b50505050565b6000600282049050600182168061515a57607f821691505b6020821081141561516e5761516d61524c565b5b50919050565b61517d8261532b565b810181811067ffffffffffffffff8211171561519c5761519b6152d9565b5b80604052505050565b60006151b0826150b5565b91507fffffffffffffffffffffffffffffffffffffffffffffffffffffffffffffffff8214156151e3576151e26151ee565b5b600182019050919050565b7f4e487b7100000000000000000000000000000000000000000000000000000000600052601160045260246000fd5b7f4e487b7100000000000000000000000000000000000000000000000000000000600052602160045260246000fd5b7f4e487b7100000000000000000000000000000000000000000000000000000000600052602260045260246000fd5b7f4e487b7100000000000000000000000000000000000000000000000000000000600052603160045260246000fd5b7f4e487b7100000000000000000000000000000000000000000000000000000000600052603260045260246000fd5b7f4e487b7100000000000000000000000000000000000000000000000000000000600052604160045260246000fd5b600080fd5b600080fd5b600080fd5b600080fd5b600080fd5b600080fd5b600080fd5b6000601f19601f8301169050919050565b7f53686f70206e616d6520616c72656164792074616b656e000000000000000000600082015250565b7f4e6f7420656e6f75676820637265646974730000000000000000000000000000600082015250565b7f4e6f207075626c6963206b657920666f756e6420666f7220746869732075736560008201527f7200000000000000000000000000000000000000000000000000000000000000602082015250565b7f4e6f7420656e6f7567682066756e647300000000000000000000000000000000600082015250565b7f53686f7020646f6573206e6f7420657869737400000000000000000000000000600082015250565b7f4f6e6c79206f7261636c6520636c69656e742063616e2063616c6c207468652060008201527f66756e6374696f6e210000000000000000000000000000000000000000000000602082015250565b7f6f6e6c792073686f70206f776e65722063616e2063616c6c207468652066756e60008201527f6374696f6e210000000000000000000000000000000000000000000000000000602082015250565b7f4f6e6c79206f776e65722063616e2063616c6c207468652066756e6374696f6e60008201527f2100000000000000000000000000000000000000000000000000000000000000602082015250565b7f4f6e6c792062757965722063616e2063616c6c207468652066756e6374696f6e60008201527f2100000000000000000000000000000000000000000000000000000000000000602082015250565b6005811061557c5761557b61521d565b5b50565b600481106155905761558f61521d565b5b50565b61559c81615051565b81146155a757600080fd5b50565b6155b381615063565b81146155be57600080fd5b50565b600581106155ce57600080fd5b50565b600481106155de57600080fd5b50565b6155ea816150b5565b81146155f557600080fd5b50565b615601816150bf565b811461560c57600080fd5b50565b615618816150cf565b811461562357600080fd5b5056fea2646970667358221220dee8e18339e8d7ea378bf1c7481d09f16141ac80bb3d2b9e89e9e16fd2fde65864736f6c63430008070033",
  "linkReferences": {},
  "deployedLinkReferences": {}
}